{
  "address": "0x4f18ffF9dc5a08AA51747b6F656CBD9AC94c0454",
  "abi": [
    {
      "inputs": [
        {
          "internalType": "address",
          "name": "_documents",
          "type": "address"
        }
      ],
      "stateMutability": "nonpayable",
      "type": "constructor"
    },
    {
      "anonymous": false,
      "inputs": [
        {
          "indexed": true,
          "internalType": "uint256",
          "name": "auctionId",
          "type": "uint256"
        },
        {
          "indexed": false,
          "internalType": "uint96",
          "name": "soldAuctioningTokens",
          "type": "uint96"
        },
        {
          "indexed": false,
          "internalType": "uint96",
          "name": "soldBiddingTokens",
          "type": "uint96"
        },
        {
          "indexed": false,
          "internalType": "bytes32",
          "name": "clearingPriceOrder",
          "type": "bytes32"
        }
      ],
      "name": "AuctionCleared",
      "type": "event"
    },
    {
      "anonymous": false,
      "inputs": [
        {
          "indexed": true,
          "internalType": "uint256",
          "name": "auctionId",
          "type": "uint256"
        },
        {
          "indexed": true,
          "internalType": "uint64",
          "name": "userId",
          "type": "uint64"
        },
        {
          "indexed": false,
          "internalType": "uint96",
          "name": "buyAmount",
          "type": "uint96"
        },
        {
          "indexed": false,
          "internalType": "uint96",
          "name": "sellAmount",
          "type": "uint96"
        }
      ],
      "name": "CancellationSellOrder",
      "type": "event"
    },
    {
      "anonymous": false,
      "inputs": [
        {
          "indexed": true,
          "internalType": "uint256",
          "name": "auctionId",
          "type": "uint256"
        },
        {
          "indexed": true,
          "internalType": "uint64",
          "name": "userId",
          "type": "uint64"
        },
        {
          "indexed": false,
          "internalType": "uint96",
          "name": "buyAmount",
          "type": "uint96"
        },
        {
          "indexed": false,
          "internalType": "uint96",
          "name": "sellAmount",
          "type": "uint96"
        }
      ],
      "name": "ClaimedFromOrder",
      "type": "event"
    },
    {
      "anonymous": false,
      "inputs": [
        {
          "indexed": true,
          "internalType": "uint256",
          "name": "auctionId",
          "type": "uint256"
        },
        {
          "indexed": true,
          "internalType": "contract IERC20",
          "name": "_auctioningToken",
          "type": "address"
        },
        {
          "indexed": true,
          "internalType": "contract IERC20",
          "name": "_biddingToken",
          "type": "address"
        },
        {
          "indexed": false,
          "internalType": "uint256",
          "name": "orderCancellationEndDate",
          "type": "uint256"
        },
        {
          "indexed": false,
          "internalType": "uint256",
          "name": "auctionEndDate",
          "type": "uint256"
        },
        {
          "indexed": false,
          "internalType": "uint64",
          "name": "userId",
          "type": "uint64"
        },
        {
          "indexed": false,
          "internalType": "uint96",
          "name": "_auctionedSellAmount",
          "type": "uint96"
        },
        {
          "indexed": false,
          "internalType": "uint96",
          "name": "_minBuyAmount",
          "type": "uint96"
        },
        {
          "indexed": false,
          "internalType": "uint256",
          "name": "minimumBiddingAmountPerOrder",
          "type": "uint256"
        },
        {
          "indexed": false,
          "internalType": "uint256",
          "name": "minFundingThreshold",
          "type": "uint256"
        },
        {
          "indexed": false,
          "internalType": "address",
          "name": "allowListContract",
          "type": "address"
        },
        {
          "indexed": false,
          "internalType": "bytes",
          "name": "allowListData",
          "type": "bytes"
        }
      ],
      "name": "NewAuction",
      "type": "event"
    },
    {
      "anonymous": false,
      "inputs": [
        {
          "indexed": true,
          "internalType": "uint256",
          "name": "auctionId",
          "type": "uint256"
        },
        {
          "indexed": true,
          "internalType": "uint64",
          "name": "userId",
          "type": "uint64"
        },
        {
          "indexed": false,
          "internalType": "uint96",
          "name": "buyAmount",
          "type": "uint96"
        },
        {
          "indexed": false,
          "internalType": "uint96",
          "name": "sellAmount",
          "type": "uint96"
        }
      ],
      "name": "NewSellOrder",
      "type": "event"
    },
    {
      "anonymous": false,
      "inputs": [
        {
          "indexed": true,
          "internalType": "uint64",
          "name": "userId",
          "type": "uint64"
        },
        {
          "indexed": true,
          "internalType": "address",
          "name": "userAddress",
          "type": "address"
        }
      ],
      "name": "NewUser",
      "type": "event"
    },
    {
      "anonymous": false,
      "inputs": [
        {
          "indexed": true,
          "internalType": "address",
          "name": "previousOwner",
          "type": "address"
        },
        {
          "indexed": true,
          "internalType": "address",
          "name": "newOwner",
          "type": "address"
        }
      ],
      "name": "OwnershipTransferred",
      "type": "event"
    },
    {
      "anonymous": false,
      "inputs": [
        {
          "indexed": true,
          "internalType": "address",
          "name": "user",
          "type": "address"
        },
        {
          "indexed": false,
          "internalType": "uint64",
          "name": "userId",
          "type": "uint64"
        }
      ],
      "name": "UserRegistration",
      "type": "event"
    },
    {
      "inputs": [],
      "name": "FEE_DENOMINATOR",
      "outputs": [
        {
          "internalType": "uint256",
          "name": "",
          "type": "uint256"
        }
      ],
      "stateMutability": "view",
      "type": "function"
    },
    {
      "inputs": [
        {
          "internalType": "uint256",
          "name": "",
          "type": "uint256"
        }
      ],
      "name": "auctionAccessData",
      "outputs": [
        {
          "internalType": "bytes",
          "name": "",
          "type": "bytes"
        }
      ],
      "stateMutability": "view",
      "type": "function"
    },
    {
      "inputs": [
        {
          "internalType": "uint256",
          "name": "",
          "type": "uint256"
        }
      ],
      "name": "auctionAccessManager",
      "outputs": [
        {
          "internalType": "address",
          "name": "",
          "type": "address"
        }
      ],
      "stateMutability": "view",
      "type": "function"
    },
    {
      "inputs": [],
      "name": "auctionCounter",
      "outputs": [
        {
          "internalType": "uint256",
          "name": "",
          "type": "uint256"
        }
      ],
      "stateMutability": "view",
      "type": "function"
    },
    {
      "inputs": [
        {
          "internalType": "uint256",
          "name": "",
          "type": "uint256"
        }
      ],
      "name": "auctionData",
      "outputs": [
        {
          "internalType": "contract IERC20",
          "name": "auctioningToken",
          "type": "address"
        },
        {
          "internalType": "contract IERC20",
          "name": "biddingToken",
          "type": "address"
        },
        {
          "internalType": "uint256",
          "name": "orderCancellationEndDate",
          "type": "uint256"
        },
        {
          "internalType": "uint256",
          "name": "auctionEndDate",
          "type": "uint256"
        },
        {
          "internalType": "bytes32",
          "name": "initialAuctionOrder",
          "type": "bytes32"
        },
        {
          "internalType": "uint256",
          "name": "minimumBiddingAmountPerOrder",
          "type": "uint256"
        },
        {
          "internalType": "uint256",
          "name": "interimSumBidAmount",
          "type": "uint256"
        },
        {
          "internalType": "bytes32",
          "name": "interimOrder",
          "type": "bytes32"
        },
        {
          "internalType": "bytes32",
          "name": "clearingPriceOrder",
          "type": "bytes32"
        },
        {
          "internalType": "uint96",
          "name": "volumeClearingPriceOrder",
          "type": "uint96"
        },
        {
          "internalType": "bool",
          "name": "minFundingThresholdNotReached",
          "type": "bool"
        },
        {
          "internalType": "bool",
          "name": "isAtomicClosureAllowed",
          "type": "bool"
        },
        {
          "internalType": "uint256",
          "name": "feeNumerator",
          "type": "uint256"
        },
        {
          "internalType": "uint256",
          "name": "minFundingThreshold",
          "type": "uint256"
        }
      ],
      "stateMutability": "view",
      "type": "function"
    },
    {
      "inputs": [
        {
          "internalType": "uint256",
          "name": "auctionId",
          "type": "uint256"
        },
        {
          "internalType": "bytes32[]",
          "name": "_sellOrders",
          "type": "bytes32[]"
        }
      ],
      "name": "cancelSellOrders",
      "outputs": [],
      "stateMutability": "nonpayable",
      "type": "function"
    },
    {
      "inputs": [
        {
          "internalType": "uint256",
          "name": "auctionId",
          "type": "uint256"
        },
        {
          "internalType": "bytes32[]",
          "name": "orders",
          "type": "bytes32[]"
        }
      ],
      "name": "claimFromParticipantOrder",
      "outputs": [
        {
          "internalType": "uint256",
          "name": "sumAuctioningTokenAmount",
          "type": "uint256"
        },
        {
          "internalType": "uint256",
          "name": "sumBiddingTokenAmount",
          "type": "uint256"
        }
      ],
      "stateMutability": "nonpayable",
      "type": "function"
    },
    {
      "inputs": [
        {
          "internalType": "uint256",
          "name": "auctionId",
          "type": "uint256"
        },
        {
          "internalType": "bytes32",
          "name": "order",
          "type": "bytes32"
        }
      ],
      "name": "containsOrder",
      "outputs": [
        {
          "internalType": "bool",
          "name": "",
          "type": "bool"
        }
      ],
      "stateMutability": "view",
      "type": "function"
    },
    {
      "inputs": [],
      "name": "documents",
      "outputs": [
        {
          "internalType": "contract IDocuments",
          "name": "",
          "type": "address"
        }
      ],
      "stateMutability": "view",
      "type": "function"
    },
    {
      "inputs": [],
      "name": "feeNumerator",
      "outputs": [
        {
          "internalType": "uint256",
          "name": "",
          "type": "uint256"
        }
      ],
      "stateMutability": "view",
      "type": "function"
    },
    {
      "inputs": [],
      "name": "feeReceiverUserId",
      "outputs": [
        {
          "internalType": "uint64",
          "name": "",
          "type": "uint64"
        }
      ],
      "stateMutability": "view",
      "type": "function"
    },
    {
      "inputs": [
        {
          "internalType": "uint256",
          "name": "auctionId",
          "type": "uint256"
        }
      ],
      "name": "getSecondsRemainingInBatch",
      "outputs": [
        {
          "internalType": "uint256",
          "name": "",
          "type": "uint256"
        }
      ],
      "stateMutability": "view",
      "type": "function"
    },
    {
      "inputs": [
        {
          "internalType": "address",
          "name": "user",
          "type": "address"
        }
      ],
      "name": "getUserId",
      "outputs": [
        {
          "internalType": "uint64",
          "name": "userId",
          "type": "uint64"
        }
      ],
      "stateMutability": "nonpayable",
      "type": "function"
    },
    {
      "inputs": [
        {
          "internalType": "contract IERC20",
          "name": "_auctioningToken",
          "type": "address"
        },
        {
          "internalType": "contract IERC20",
          "name": "_biddingToken",
          "type": "address"
        },
        {
          "internalType": "uint256",
          "name": "orderCancellationEndDate",
          "type": "uint256"
        },
        {
          "internalType": "uint256",
          "name": "auctionEndDate",
          "type": "uint256"
        },
        {
          "internalType": "uint96",
          "name": "_auctionedSellAmount",
          "type": "uint96"
        },
        {
          "internalType": "uint96",
          "name": "_minBuyAmount",
          "type": "uint96"
        },
        {
          "internalType": "uint256",
          "name": "minimumBiddingAmountPerOrder",
          "type": "uint256"
        },
        {
          "internalType": "uint256",
          "name": "minFundingThreshold",
          "type": "uint256"
        },
        {
          "internalType": "bool",
          "name": "isAtomicClosureAllowed",
          "type": "bool"
        },
        {
          "internalType": "address",
          "name": "accessManagerContract",
          "type": "address"
        },
        {
          "internalType": "bytes",
          "name": "accessManagerContractData",
          "type": "bytes"
        }
      ],
      "name": "initiateAuction",
      "outputs": [
        {
          "internalType": "uint256",
          "name": "",
          "type": "uint256"
        }
      ],
      "stateMutability": "nonpayable",
      "type": "function"
    },
    {
      "inputs": [],
      "name": "numUsers",
      "outputs": [
        {
          "internalType": "uint64",
          "name": "",
          "type": "uint64"
        }
      ],
      "stateMutability": "view",
      "type": "function"
    },
    {
      "inputs": [],
      "name": "owner",
      "outputs": [
        {
          "internalType": "address",
          "name": "",
          "type": "address"
        }
      ],
      "stateMutability": "view",
      "type": "function"
    },
    {
      "inputs": [
        {
          "internalType": "uint256",
          "name": "auctionId",
          "type": "uint256"
        },
        {
          "internalType": "uint96[]",
          "name": "_minBuyAmounts",
          "type": "uint96[]"
        },
        {
          "internalType": "uint96[]",
          "name": "_sellAmounts",
          "type": "uint96[]"
        },
        {
          "internalType": "bytes32[]",
          "name": "_prevSellOrders",
          "type": "bytes32[]"
        },
        {
          "internalType": "bytes",
          "name": "allowListCallData",
          "type": "bytes"
        }
      ],
      "name": "placeSellOrders",
      "outputs": [
        {
          "internalType": "uint64",
          "name": "userId",
          "type": "uint64"
        }
      ],
      "stateMutability": "nonpayable",
      "type": "function"
    },
    {
      "inputs": [
        {
          "internalType": "uint256",
          "name": "auctionId",
          "type": "uint256"
        },
        {
          "internalType": "uint96[]",
          "name": "_minBuyAmounts",
          "type": "uint96[]"
        },
        {
          "internalType": "uint96[]",
          "name": "_sellAmounts",
          "type": "uint96[]"
        },
        {
          "internalType": "bytes32[]",
          "name": "_prevSellOrders",
          "type": "bytes32[]"
        },
        {
          "internalType": "bytes",
          "name": "allowListCallData",
          "type": "bytes"
        },
        {
          "internalType": "address",
          "name": "orderSubmitter",
          "type": "address"
        }
      ],
      "name": "placeSellOrdersOnBehalf",
      "outputs": [
        {
          "internalType": "uint64",
          "name": "userId",
          "type": "uint64"
        }
      ],
      "stateMutability": "nonpayable",
      "type": "function"
    },
    {
      "inputs": [
        {
          "internalType": "uint256",
          "name": "auctionId",
          "type": "uint256"
        },
        {
          "internalType": "uint256",
          "name": "iterationSteps",
          "type": "uint256"
        }
      ],
      "name": "precalculateSellAmountSum",
      "outputs": [],
      "stateMutability": "nonpayable",
      "type": "function"
    },
    {
      "inputs": [
        {
          "internalType": "address",
          "name": "user",
          "type": "address"
        }
      ],
      "name": "registerUser",
      "outputs": [
        {
          "internalType": "uint64",
          "name": "userId",
          "type": "uint64"
        }
      ],
      "stateMutability": "nonpayable",
      "type": "function"
    },
    {
      "inputs": [
        {
          "internalType": "string",
          "name": "_name",
          "type": "string"
        }
      ],
      "name": "removeDocument",
      "outputs": [],
      "stateMutability": "nonpayable",
      "type": "function"
    },
    {
      "inputs": [],
      "name": "renounceOwnership",
      "outputs": [],
      "stateMutability": "nonpayable",
      "type": "function"
    },
    {
      "inputs": [
        {
          "internalType": "string",
          "name": "_name",
          "type": "string"
        },
        {
          "internalType": "string",
          "name": "_data",
          "type": "string"
        }
      ],
      "name": "setDocument",
      "outputs": [],
      "stateMutability": "nonpayable",
      "type": "function"
    },
    {
      "inputs": [
        {
          "internalType": "uint256",
          "name": "newFeeNumerator",
          "type": "uint256"
        },
        {
          "internalType": "address",
          "name": "newfeeReceiverAddress",
          "type": "address"
        }
      ],
      "name": "setFeeParameters",
      "outputs": [],
      "stateMutability": "nonpayable",
      "type": "function"
    },
    {
      "inputs": [
        {
          "internalType": "uint256",
          "name": "auctionId",
          "type": "uint256"
        }
      ],
      "name": "settleAuction",
      "outputs": [
        {
          "internalType": "bytes32",
          "name": "clearingOrder",
          "type": "bytes32"
        }
      ],
      "stateMutability": "nonpayable",
      "type": "function"
    },
    {
      "inputs": [
        {
          "internalType": "uint256",
          "name": "auctionId",
          "type": "uint256"
        },
        {
          "internalType": "uint96[]",
          "name": "_minBuyAmount",
          "type": "uint96[]"
        },
        {
          "internalType": "uint96[]",
          "name": "_sellAmount",
          "type": "uint96[]"
        },
        {
          "internalType": "bytes32[]",
          "name": "_prevSellOrder",
          "type": "bytes32[]"
        },
        {
          "internalType": "bytes",
          "name": "allowListCallData",
          "type": "bytes"
        }
      ],
      "name": "settleAuctionAtomically",
      "outputs": [],
      "stateMutability": "nonpayable",
      "type": "function"
    },
    {
      "inputs": [
        {
          "internalType": "address",
          "name": "newOwner",
          "type": "address"
        }
      ],
      "name": "transferOwnership",
      "outputs": [],
      "stateMutability": "nonpayable",
      "type": "function"
    }
  ],
  "transactionHash": "0x40916421f43f7b0d59446953276f7faf9ac33871c5ed6e6e6590c7824d476b50",
  "args": [
    "0xe7915A4cAaa9e63C68173C90735706C4996ce511"
  ],
  "solcInputHash": "08f09d140c590cf93469652369c9115b",
  "bytecode": "0x60a060405260006009556001600a60006101000a81548167ffffffffffffffff021916908367ffffffffffffffff1602179055503480156200004057600080fd5b5060405162005f4638038062005f46833981810160405260208110156200006657600080fd5b81019080805190602001909291905050506000620000896200016560201b60201c565b9050806000806101000a81548173ffffffffffffffffffffffffffffffffffffffff021916908373ffffffffffffffffffffffffffffffffffffffff1602179055508073ffffffffffffffffffffffffffffffffffffffff16600073ffffffffffffffffffffffffffffffffffffffff167f8be0079c531659141344cd1fd0a4f28419497f9722a3daafe3b4186f6b6457e060405160405180910390a3508073ffffffffffffffffffffffffffffffffffffffff1660808173ffffffffffffffffffffffffffffffffffffffff1660601b81525050506200016d565b600033905090565b60805160601c615db1620001956000398061218252806133e1528061356b5250615db16000f3fe608060405234801561001057600080fd5b50600436106101a95760003560e01c80637882deaf116100f9578063d73792a911610097578063e86dea4a11610071578063e86dea4a14610f11578063ec20d0bb14610f2f578063f2fde38b146111ac578063f59c2f06146111f0576101a9565b8063d73792a914610e22578063dde51f6d14610e40578063e4a59ef414610eb9576101a9565b806391cfc1d4116100d357806391cfc1d41461089a5780639c64d0ae14610ad9578063a7e7664414610ba7578063d225269c14610bc5576101a9565b80637882deaf146106c75780637ed18b70146107a45780638da5cb5b14610866576101a9565b80633a1806b41161016657806355fc62d21161014057806355fc62d21461056c5780635cefb2911461064757806363c699a41461066f578063715018a6146106bd576101a9565b80633a1806b4146104b25780633e12905f146104e657806340b20b091461051e576101a9565b80630a4cd6c9146101ae57806315d37b4b1461034257806319a50f49146103845780632199d5cd146103ac5780632b956ff71461040e5780632e99361114610470575b600080fd5b61032c60048036036101608110156101c557600080fd5b81019080803573ffffffffffffffffffffffffffffffffffffffff169060200190929190803573ffffffffffffffffffffffffffffffffffffffff169060200190929190803590602001909291908035906020019092919080356bffffffffffffffffffffffff16906020019092919080356bffffffffffffffffffffffff1690602001909291908035906020019092919080359060200190929190803515159060200190929190803573ffffffffffffffffffffffffffffffffffffffff169060200190929190803590602001906401000000008111156102a657600080fd5b8201836020820111156102b857600080fd5b803590602001918460018302840111640100000000831117156102da57600080fd5b91908080601f016020809104026020016040519081016040528093929190818152602001838380828437600081840152601f19601f820116905080830192505050505050509192919290505050611297565b6040518082815260200191505060405180910390f35b61036e6004803603602081101561035857600080fd5b8101908080359060200190929190505050611956565b6040518082815260200191505060405180910390f35b61038c6119b0565b604051808267ffffffffffffffff16815260200191505060405180910390f35b6103ee600480360360208110156103c257600080fd5b81019080803573ffffffffffffffffffffffffffffffffffffffff1690602001909291905050506119ca565b604051808267ffffffffffffffff16815260200191505060405180910390f35b6104506004803603602081101561042457600080fd5b81019080803573ffffffffffffffffffffffffffffffffffffffff169060200190929190505050611b44565b604051808267ffffffffffffffff16815260200191505060405180910390f35b61049c6004803603602081101561048657600080fd5b8101908080359060200190929190505050611bd9565b6040518082815260200191505060405180910390f35b6104ba612180565b604051808273ffffffffffffffffffffffffffffffffffffffff16815260200191505060405180910390f35b61051c600480360360408110156104fc57600080fd5b8101908080359060200190929190803590602001909291905050506121a4565b005b61056a6004803603604081101561053457600080fd5b8101908080359060200190929190803573ffffffffffffffffffffffffffffffffffffffff1690602001909291905050506124c6565b005b6105986004803603602081101561058257600080fd5b810190808035906020019092919050505061260b565b604051808f73ffffffffffffffffffffffffffffffffffffffff1681526020018e73ffffffffffffffffffffffffffffffffffffffff1681526020018d81526020018c81526020018b81526020018a8152602001898152602001888152602001878152602001866bffffffffffffffffffffffff168152602001851515815260200184151581526020018381526020018281526020019e50505050505050505050505050505060405180910390f35b61064f6126e9565b604051808267ffffffffffffffff16815260200191505060405180910390f35b6106a56004803603604081101561068557600080fd5b810190808035906020019092919080359060200190929190505050612703565b60405180821515815260200191505060405180910390f35b6106c5612732565b005b610787600480360360408110156106dd57600080fd5b81019080803590602001909291908035906020019064010000000081111561070457600080fd5b82018360208201111561071657600080fd5b8035906020019184602083028401116401000000008311171561073857600080fd5b919080806020026020016040519081016040528093929190818152602001838360200280828437600081840152601f19601f82011690508083019250505050505050919291929050505061289f565b604051808381526020018281526020019250505060405180910390f35b610864600480360360408110156107ba57600080fd5b8101908080359060200190929190803590602001906401000000008111156107e157600080fd5b8201836020820111156107f357600080fd5b8035906020019184602083028401116401000000008311171561081557600080fd5b919080806020026020016040519081016040528093929190818152602001838360200280828437600081840152601f19601f820116905080830192505050505050509192919290505050612eeb565b005b61086e61314e565b604051808273ffffffffffffffffffffffffffffffffffffffff16815260200191505060405180910390f35b610ad7600480360360a08110156108b057600080fd5b8101908080359060200190929190803590602001906401000000008111156108d757600080fd5b8201836020820111156108e957600080fd5b8035906020019184602083028401116401000000008311171561090b57600080fd5b919080806020026020016040519081016040528093929190818152602001838360200280828437600081840152601f19601f8201169050808301925050505050505091929192908035906020019064010000000081111561096b57600080fd5b82018360208201111561097d57600080fd5b8035906020019184602083028401116401000000008311171561099f57600080fd5b919080806020026020016040519081016040528093929190818152602001838360200280828437600081840152601f19601f820116905080830192505050505050509192919290803590602001906401000000008111156109ff57600080fd5b820183602082011115610a1157600080fd5b80359060200191846020830284011164010000000083111715610a3357600080fd5b919080806020026020016040519081016040528093929190818152602001838360200280828437600081840152601f19601f82011690508083019250505050505050919291929080359060200190640100000000811115610a9357600080fd5b820183602082011115610aa557600080fd5b80359060200191846001830284011164010000000083111715610ac757600080fd5b9091929391929390505050613177565b005b610ba560048036036040811015610aef57600080fd5b8101908080359060200190640100000000811115610b0c57600080fd5b820183602082011115610b1e57600080fd5b80359060200191846001830284011164010000000083111715610b4057600080fd5b909192939192939080359060200190640100000000811115610b6157600080fd5b820183602082011115610b7357600080fd5b80359060200191846001830284011164010000000083111715610b9557600080fd5b90919293919293905050506133df565b005b610baf6134d0565b6040518082815260200191505060405180910390f35b610e02600480360360a0811015610bdb57600080fd5b810190808035906020019092919080359060200190640100000000811115610c0257600080fd5b820183602082011115610c1457600080fd5b80359060200191846020830284011164010000000083111715610c3657600080fd5b919080806020026020016040519081016040528093929190818152602001838360200280828437600081840152601f19601f82011690508083019250505050505050919291929080359060200190640100000000811115610c9657600080fd5b820183602082011115610ca857600080fd5b80359060200191846020830284011164010000000083111715610cca57600080fd5b919080806020026020016040519081016040528093929190818152602001838360200280828437600081840152601f19601f82011690508083019250505050505050919291929080359060200190640100000000811115610d2a57600080fd5b820183602082011115610d3c57600080fd5b80359060200191846020830284011164010000000083111715610d5e57600080fd5b919080806020026020016040519081016040528093929190818152602001838360200280828437600081840152601f19601f82011690508083019250505050505050919291929080359060200190640100000000811115610dbe57600080fd5b820183602082011115610dd057600080fd5b80359060200191846001830284011164010000000083111715610df257600080fd5b90919293919293905050506134d6565b604051808267ffffffffffffffff16815260200191505060405180910390f35b610e2a613563565b6040518082815260200191505060405180910390f35b610eb760048036036020811015610e5657600080fd5b8101908080359060200190640100000000811115610e7357600080fd5b820183602082011115610e8557600080fd5b80359060200191846001830284011164010000000083111715610ea757600080fd5b9091929391929390505050613569565b005b610ee560048036036020811015610ecf57600080fd5b8101908080359060200190929190505050613624565b604051808273ffffffffffffffffffffffffffffffffffffffff16815260200191505060405180910390f35b610f19613657565b6040518082815260200191505060405180910390f35b61118c600480360360c0811015610f4557600080fd5b810190808035906020019092919080359060200190640100000000811115610f6c57600080fd5b820183602082011115610f7e57600080fd5b80359060200191846020830284011164010000000083111715610fa057600080fd5b919080806020026020016040519081016040528093929190818152602001838360200280828437600081840152601f19601f8201169050808301925050505050505091929192908035906020019064010000000081111561100057600080fd5b82018360208201111561101257600080fd5b8035906020019184602083028401116401000000008311171561103457600080fd5b919080806020026020016040519081016040528093929190818152602001838360200280828437600081840152601f19601f8201169050808301925050505050505091929192908035906020019064010000000081111561109457600080fd5b8201836020820111156110a657600080fd5b803590602001918460208302840111640100000000831117156110c857600080fd5b919080806020026020016040519081016040528093929190818152602001838360200280828437600081840152601f19601f8201169050808301925050505050505091929192908035906020019064010000000081111561112857600080fd5b82018360208201111561113a57600080fd5b8035906020019184600183028401116401000000008311171561115c57600080fd5b9091929391929390803573ffffffffffffffffffffffffffffffffffffffff16906020019092919050505061365d565b604051808267ffffffffffffffff16815260200191505060405180910390f35b6111ee600480360360208110156111c257600080fd5b81019080803573ffffffffffffffffffffffffffffffffffffffff1690602001909291905050506136eb565b005b61121c6004803603602081101561120657600080fd5b81019080803590602001909291905050506138dd565b6040518080602001828103825283818151815260200191508051906020019080838360005b8381101561125c578082015181840152602081019050611241565b50505050905090810190601f1680156112895780820380516001836020036101000a031916815260200191505b509250505060405180910390f35b600061131033306112e96103e86112db6112be6009546103e861398d90919063ffffffff16565b8e6bffffffffffffffffffffffff16613a1590919063ffffffff16565b613a9b90919063ffffffff16565b8f73ffffffffffffffffffffffffffffffffffffffff16613b24909392919063ffffffff16565b6000886bffffffffffffffffffffffff1611611394576040517f08c379a000000000000000000000000000000000000000000000000000000000815260040180806020018281038252601a8152602001807f63616e6e6f742061756374696f6e207a65726f20746f6b656e7300000000000081525060200191505060405180910390fd5b6000876bffffffffffffffffffffffff16116113fb576040517f08c379a0000000000000000000000000000000000000000000000000000000008152600401808060200182810382526023815260200180615a836023913960400191505060405180910390fd5b60008611611454576040517f08c379a0000000000000000000000000000000000000000000000000000000008152600401808060200182810382526036815260200180615be96036913960400191505060405180910390fd5b888a11156114ad576040517f08c379a0000000000000000000000000000000000000000000000000000000008152600401808060200182810382526029815260200180615d076029913960400191505060405180910390fd5b428911611505576040517f08c379a0000000000000000000000000000000000000000000000000000000008152600401808060200182810382526026815260200180615b726026913960400191505060405180910390fd5b61151b600160085461398d90919063ffffffff16565b60088190555061153e600160006008548152602001908152602001600020613be5565b600061154933611b44565b9050604051806101c001604052808e73ffffffffffffffffffffffffffffffffffffffff1681526020018d73ffffffffffffffffffffffffffffffffffffffff1681526020018c81526020018b81526020016115a6838b8d613c6a565b815260200188815260200160008152602001600160001b81526020016000801b815260200160006bffffffffffffffffffffffff168152602001600015158152602001861515815260200160095481526020018781525060026000600854815260200190815260200160002060008201518160000160006101000a81548173ffffffffffffffffffffffffffffffffffffffff021916908373ffffffffffffffffffffffffffffffffffffffff16021790555060208201518160010160006101000a81548173ffffffffffffffffffffffffffffffffffffffff021916908373ffffffffffffffffffffffffffffffffffffffff16021790555060408201518160020155606082015181600301556080820151816004015560a0820151816005015560c0820151816006015560e0820151816007015561010082015181600801556101208201518160090160006101000a8154816bffffffffffffffffffffffff02191690836bffffffffffffffffffffffff16021790555061014082015181600901600c6101000a81548160ff02191690831515021790555061016082015181600901600d6101000a81548160ff02191690831515021790555061018082015181600a01556101a082015181600b01559050508360036000600854815260200190815260200160002060006101000a81548173ffffffffffffffffffffffffffffffffffffffff021916908373ffffffffffffffffffffffffffffffffffffffff1602179055508260046000600854815260200190815260200160002090805190602001906117f792919061581f565b508b73ffffffffffffffffffffffffffffffffffffffff168d73ffffffffffffffffffffffffffffffffffffffff166008547f728d0fed13687f1840de94f5ae640eae49b43eda26b7ffe97e55e79a0de6e40c8e8e868f8f8f8f8e8e604051808a81526020018981526020018867ffffffffffffffff168152602001876bffffffffffffffffffffffff168152602001866bffffffffffffffffffffffff1681526020018581526020018481526020018373ffffffffffffffffffffffffffffffffffffffff16815260200180602001828103825283818151815260200191508051906020019080838360005b838110156118ff5780820151818401526020810190506118e4565b50505050905090810190601f16801561192c5780820380516001836020036101000a031916815260200191505b509a505050505050505050505060405180910390a46008549150509b9a5050505050505050505050565b6000426002600084815260200190815260200160002060030154101561197f57600090506119ab565b6119a8426002600085815260200190815260200160002060030154613cab90919063ffffffff16565b90505b919050565b600760009054906101000a900467ffffffffffffffff1681565b6000611a08611a036001600760009054906101000a900467ffffffffffffffff1667ffffffffffffffff1661398d90919063ffffffff16565b613d2e565b600760006101000a81548167ffffffffffffffff021916908367ffffffffffffffff160217905550611a5c600760009054906101000a900467ffffffffffffffff16836005613d999092919063ffffffff16565b611ace576040517f08c379a00000000000000000000000000000000000000000000000000000000081526004018080602001828103825260178152602001807f5573657220616c7265616479207265676973746572656400000000000000000081525060200191505060405180910390fd5b600760009054906101000a900467ffffffffffffffff1690508173ffffffffffffffffffffffffffffffffffffffff167f6838f67cb358c332087b73dbe769a6c869a5f87225236c16dda5d0013a77074c82604051808267ffffffffffffffff16815260200191505060405180910390a2919050565b6000611b5a8260056140bf90919063ffffffff16565b15611b7a57611b7382600561412c90919063ffffffff16565b9050611bd4565b611b83826119ca565b90508173ffffffffffffffffffffffffffffffffffffffff168167ffffffffffffffff167f969d438b19b6b5fb3c0d3c6f16867e519fcec4233799d6be29d1c00f2045ba2660405160405180910390a35b919050565b60008160006002600083815260200190815260200160002060030154905060008114158015611c085750804210155b8015611c2c57506000801b6002600084815260200190815260200160002060080154145b611c81576040517f08c379a0000000000000000000000000000000000000000000000000000000008152600401808060200182810382526028815260200180615c896028913960400191505060405180910390fd5b506000806000611ca6600260008881526020019081526020016000206004015461420b565b92509250925060006002600088815260200190815260200160002060060154905060006002600089815260200190815260200160002060070154905060008060008590505b6000611d1285600160008f815260200190815260200160002061423190919063ffffffff16565b90507fffffffffffffffffffffffffffffffffffffffff00000000000000000000000160001b811415611d455750611dce565b809450611d518561420b565b909150816bffffffffffffffffffffffff169150806bffffffffffffffffffffffff1690508094508195505050611d91838761398d90919063ffffffff16565b955050611db582876bffffffffffffffffffffffff16613a1590919063ffffffff16565b611dc88487613a1590919063ffffffff16565b10611ceb575b600085118015611e105750611dfa82876bffffffffffffffffffffffff16613a1590919063ffffffff16565b611e0d8487613a1590919063ffffffff16565b10155b15611f19576000611e5c611e4d85611e3f868b6bffffffffffffffffffffffff16613a1590919063ffffffff16565b613a9b90919063ffffffff16565b87613cab90919063ffffffff16565b9050808310611ee7576000611e7a8285613cab90919063ffffffff16565b9050611e858161432f565b600260008f815260200190815260200160002060090160006101000a8154816bffffffffffffffffffffffff02191690836bffffffffffffffffffffffff160217905550611edc8288613cab90919063ffffffff16565b9650859b5050611f13565b611efa8387613cab90919063ffffffff16565b9550611f10600088611f0b8961432f565b613c6a565b9a505b50611fa5565b866bffffffffffffffffffffffff16851115611f4a57611f43600087611f3e8861432f565b613c6a565b9950611fa4565b611f5660008789613c6a565b9950611fa1611f9c886bffffffffffffffffffffffff16611f8e896bffffffffffffffffffffffff1689613a1590919063ffffffff16565b613a9b90919063ffffffff16565b61432f565b90505b5b89600260008d81526020019081526020016000206008018190555084600260008d8152602001908152602001600020600b0154111561200e576001600260008d8152602001908152602001600020600901600c6101000a81548160ff0219169083151502179055505b6120288b826bffffffffffffffffffffffff168a8961439e565b8a7f4d160a2a345f2faeb9ac2e65272820b8ca5473b80aabef416bdf7e07ee7f591082878d60405180846bffffffffffffffffffffffff168152602001836bffffffffffffffffffffffff168152602001828152602001935050505060405180910390a26000600360008d815260200190815260200160002060006101000a81548173ffffffffffffffffffffffffffffffffffffffff021916908373ffffffffffffffffffffffffffffffffffffffff160217905550600460008c815260200190815260200160002060006120fe919061589f565b6000801b600260008d8152602001908152602001600020600401819055506000801b600260008d8152602001908152602001600020600701819055506000600260008d8152602001908152602001600020600601819055506000600260008d815260200190815260200160002060050181905550505050505050505050919050565b7f000000000000000000000000000000000000000000000000000000000000000081565b81600060026000838152602001908152602001600020600301549050600081141580156121d15750804210155b80156121f557506000801b6002600084815260200190815260200160002060080154145b61224a576040517f08c379a0000000000000000000000000000000000000000000000000000000008152600401808060200182810382526028815260200180615c896028913960400191505060405180910390fd5b50600061226c600260008681526020019081526020016000206004015461420b565b9250505060006002600086815260200190815260200160002060060154905060006002600087815260200190815260200160002060070154905060005b85811015612318576122d682600160008a815260200190815260200160002061423190919063ffffffff16565b915060006122e38361420b565b92505050612308816bffffffffffffffffffffffff168561398d90919063ffffffff16565b93505080806001019150506122a9565b507fffffffffffffffffffffffffffffffffffffffff00000000000000000000000160001b8114156123b2576040517f08c379a00000000000000000000000000000000000000000000000000000000081526004018080602001828103825260198152602001807f7265616368656420656e64206f66206f72646572206c6973740000000000000081525060200191505060405180910390fd5b6000806123be8361420b565b92509250506123f2816bffffffffffffffffffffffff16866bffffffffffffffffffffffff16613a1590919063ffffffff16565b612413836bffffffffffffffffffffffff1686613a1590919063ffffffff16565b10612486576040517f08c379a00000000000000000000000000000000000000000000000000000000081526004018080602001828103825260198152602001807f746f6f206d616e79206f72646572732073756d6d65642075700000000000000081525060200191505060405180910390fd5b83600260008a81526020019081526020016000206006018190555082600260008a8152602001908152602001600020600701819055505050505050505050565b6124ce614590565b73ffffffffffffffffffffffffffffffffffffffff166124ec61314e565b73ffffffffffffffffffffffffffffffffffffffff1614612575576040517f08c379a00000000000000000000000000000000000000000000000000000000081526004018080602001828103825260208152602001807f4f776e61626c653a2063616c6c6572206973206e6f7420746865206f776e657281525060200191505060405180910390fd5b600f8211156125cf576040517f08c379a000000000000000000000000000000000000000000000000000000000815260040180806020018281038252602d815260200180615b45602d913960400191505060405180910390fd5b6125d881611b44565b600a60006101000a81548167ffffffffffffffff021916908367ffffffffffffffff160217905550816009819055505050565b60026020528060005260406000206000915090508060000160009054906101000a900473ffffffffffffffffffffffffffffffffffffffff16908060010160009054906101000a900473ffffffffffffffffffffffffffffffffffffffff16908060020154908060030154908060040154908060050154908060060154908060070154908060080154908060090160009054906101000a90046bffffffffffffffffffffffff169080600901600c9054906101000a900460ff169080600901600d9054906101000a900460ff169080600a01549080600b015490508e565b600a60009054906101000a900467ffffffffffffffff1681565b600061272a826001600086815260200190815260200160002061459890919063ffffffff16565b905092915050565b61273a614590565b73ffffffffffffffffffffffffffffffffffffffff1661275861314e565b73ffffffffffffffffffffffffffffffffffffffff16146127e1576040517f08c379a00000000000000000000000000000000000000000000000000000000081526004018080602001828103825260208152602001807f4f776e61626c653a2063616c6c6572206973206e6f7420746865206f776e657281525060200191505060405180910390fd5b600073ffffffffffffffffffffffffffffffffffffffff1660008054906101000a900473ffffffffffffffffffffffffffffffffffffffff1673ffffffffffffffffffffffffffffffffffffffff167f8be0079c531659141344cd1fd0a4f28419497f9722a3daafe3b4186f6b6457e060405160405180910390a360008060006101000a81548173ffffffffffffffffffffffffffffffffffffffff021916908373ffffffffffffffffffffffffffffffffffffffff160217905550565b600080836000801b60026000838152602001908152602001600020600801541415612932576040517f08c379a00000000000000000000000000000000000000000000000000000000081526004018080602001828103825260188152602001807f41756374696f6e206e6f74207965742066696e6973686564000000000000000081525060200191505060405180910390fd5b60005b84518110156129f55761297685828151811061294d57fe5b6020026020010151600160008981526020019081526020016000206145d490919063ffffffff16565b6129e8576040517f08c379a000000000000000000000000000000000000000000000000000000000815260040180806020018281038252601c8152602001807f6f72646572206973206e6f206c6f6e67657220636c61696d61626c650000000081525060200191505060405180910390fd5b8080600101915050612935565b506129fe6158e7565b60026000878152602001908152602001600020604051806101c00160405290816000820160009054906101000a900473ffffffffffffffffffffffffffffffffffffffff1673ffffffffffffffffffffffffffffffffffffffff1673ffffffffffffffffffffffffffffffffffffffff1681526020016001820160009054906101000a900473ffffffffffffffffffffffffffffffffffffffff1673ffffffffffffffffffffffffffffffffffffffff1673ffffffffffffffffffffffffffffffffffffffff168152602001600282015481526020016003820154815260200160048201548152602001600582015481526020016006820154815260200160078201548152602001600882015481526020016009820160009054906101000a90046bffffffffffffffffffffffff166bffffffffffffffffffffffff166bffffffffffffffffffffffff16815260200160098201600c9054906101000a900460ff1615151515815260200160098201600d9054906101000a900460ff16151515158152602001600a8201548152602001600b820154815250509050600080612baa83610100015161420b565b92509250506000612bce88600081518110612bc157fe5b602002602001015161420b565b505090506000600260008b8152602001908152602001600020600901600c9054906101000a900460ff16905060005b8951811015612ed1576000806000612c278d8581518110612c1a57fe5b602002602001015161420b565b9250925092508567ffffffffffffffff168367ffffffffffffffff1614612c99576040517f08c379a0000000000000000000000000000000000000000000000000000000008152600401808060200182810382526023815260200180615c666023913960400191505060405180910390fd5b8415612cc757612cc0816bffffffffffffffffffffffff168c61398d90919063ffffffff16565b9a50612e5a565b8861010001518d8581518110612cd957fe5b60200260200101511415612d9c57612d4d612d3e886bffffffffffffffffffffffff16612d308b6bffffffffffffffffffffffff168d61012001516bffffffffffffffffffffffff16613a1590919063ffffffff16565b613a9b90919063ffffffff16565b8d61398d90919063ffffffff16565b9b50612d95612d868a61012001516bffffffffffffffffffffffff16836bffffffffffffffffffffffff16613cab90919063ffffffff16565b8c61398d90919063ffffffff16565b9a50612e59565b612dc78961010001518e8681518110612db157fe5b602002602001015161461190919063ffffffff16565b15612e3457612e2d612e1e886bffffffffffffffffffffffff16612e108b6bffffffffffffffffffffffff16856bffffffffffffffffffffffff16613a1590919063ffffffff16565b613a9b90919063ffffffff16565b8d61398d90919063ffffffff16565b9b50612e58565b612e55816bffffffffffffffffffffffff168c61398d90919063ffffffff16565b9a505b5b5b8567ffffffffffffffff168e7f3f2c83616e48a2f8b3c9cc26499e2e5c61643714dac49027d82cf6732f96a91a848460405180836bffffffffffffffffffffffff168152602001826bffffffffffffffffffffffff1681526020019250505060405180910390a35050508080600101915050612bfd565b50612ede8a89898561482f565b5050505050509250929050565b8160026000828152602001908152602001600020600201544210612f5a576040517f08c379a0000000000000000000000000000000000000000000000000000000008152600401808060200182810382526032815260200180615aa66032913960400191505060405180910390fd5b6000612f6533611b44565b90506000805b84518110156130e5576000612fae868381518110612f8557fe5b6020026020010151600160008a815260200190815260200160002061492490919063ffffffff16565b905080156130d7576000806000612fd7898681518110612fca57fe5b602002602001015161420b565b9250925092508667ffffffffffffffff168367ffffffffffffffff1614613049576040517f08c379a0000000000000000000000000000000000000000000000000000000008152600401808060200182810382526023815260200180615a3a6023913960400191505060405180910390fd5b61306a816bffffffffffffffffffffffff168761398d90919063ffffffff16565b95508667ffffffffffffffff168a7f7edae327fe79804b2f38bd490d874a0d188d3ae8911b303205abe47400086ac4848460405180836bffffffffffffffffffffffff168152602001826bffffffffffffffffffffffff1681526020019250505060405180910390a35050505b508080600101915050612f6b565b5061314733826002600089815260200190815260200160002060010160009054906101000a900473ffffffffffffffffffffffffffffffffffffffff1673ffffffffffffffffffffffffffffffffffffffff166149cf9092919063ffffffff16565b5050505050565b60008060009054906101000a900473ffffffffffffffffffffffffffffffffffffffff16905090565b85600060026000838152602001908152602001600020600301549050600081141580156131a45750804210155b80156131c857506000801b6002600084815260200190815260200160002060080154145b61321d576040517f08c379a0000000000000000000000000000000000000000000000000000000008152600401808060200182810382526028815260200180615c896028913960400191505060405180910390fd5b5060026000888152602001908152602001600020600901600d9054906101000a900460ff16613297576040517f08c379a00000000000000000000000000000000000000000000000000000000081526004018080602001828103825260288152602001806159e16028913960400191505060405180910390fd5b600186511480156132a9575060018551145b6132fe576040517f08c379a0000000000000000000000000000000000000000000000000000000008152600401808060200182810382526027815260200180615b986027913960400191505060405180910390fd5b600061330933611b44565b9050613366613341828960008151811061331f57fe5b60200260200101518960008151811061333457fe5b6020026020010151613c6a565b600260008b81526020019081526020016000206007015461461190919063ffffffff16565b6133bb576040517f08c379a0000000000000000000000000000000000000000000000000000000008152600401808060200182810382526031815260200180615a096031913960400191505060405180910390fd5b6133ca88888888888833614a71565b506133d488611bd9565b505050505050505050565b7f000000000000000000000000000000000000000000000000000000000000000073ffffffffffffffffffffffffffffffffffffffff1663f3494ae9858585856040518563ffffffff1660e01b81526004018080602001806020018381038352878782818152602001925080828437600081840152601f19601f8201169050808301925050508381038252858582818152602001925080828437600081840152601f19601f8201169050808301925050509650505050505050600060405180830381600087803b1580156134b257600080fd5b505af11580156134c6573d6000803e3d6000fd5b5050505050505050565b60085481565b60008660026000828152602001908152602001600020600301544210613547576040517f08c379a0000000000000000000000000000000000000000000000000000000008152600401808060200182810382526022815260200180615d5a6022913960400191505060405180910390fd5b61355688888888888833614a71565b9150509695505050505050565b6103e881565b7f000000000000000000000000000000000000000000000000000000000000000073ffffffffffffffffffffffffffffffffffffffff1663de7afa4b83836040518363ffffffff1660e01b815260040180806020018281038252848482818152602001925080828437600081840152601f19601f8201169050808301925050509350505050600060405180830381600087803b15801561360857600080fd5b505af115801561361c573d6000803e3d6000fd5b505050505050565b60036020528060005260406000206000915054906101000a900473ffffffffffffffffffffffffffffffffffffffff1681565b60095481565b600087600260008281526020019081526020016000206003015442106136ce576040517f08c379a0000000000000000000000000000000000000000000000000000000008152600401808060200182810382526022815260200180615d5a6022913960400191505060405180910390fd5b6136dd89898989898989614a71565b915050979650505050505050565b6136f3614590565b73ffffffffffffffffffffffffffffffffffffffff1661371161314e565b73ffffffffffffffffffffffffffffffffffffffff161461379a576040517f08c379a00000000000000000000000000000000000000000000000000000000081526004018080602001828103825260208152602001807f4f776e61626c653a2063616c6c6572206973206e6f7420746865206f776e657281525060200191505060405180910390fd5b600073ffffffffffffffffffffffffffffffffffffffff168173ffffffffffffffffffffffffffffffffffffffff161415613820576040517f08c379a0000000000000000000000000000000000000000000000000000000008152600401808060200182810382526026815260200180615a5d6026913960400191505060405180910390fd5b8073ffffffffffffffffffffffffffffffffffffffff1660008054906101000a900473ffffffffffffffffffffffffffffffffffffffff1673ffffffffffffffffffffffffffffffffffffffff167f8be0079c531659141344cd1fd0a4f28419497f9722a3daafe3b4186f6b6457e060405160405180910390a3806000806101000a81548173ffffffffffffffffffffffffffffffffffffffff021916908373ffffffffffffffffffffffffffffffffffffffff16021790555050565b60046020528060005260406000206000915090508054600181600116156101000203166002900480601f0160208091040260200160405190810160405280929190818152602001828054600181600116156101000203166002900480156139855780601f1061395a57610100808354040283529160200191613985565b820191906000526020600020905b81548152906001019060200180831161396857829003601f168201915b505050505081565b600080828401905083811015613a0b576040517f08c379a000000000000000000000000000000000000000000000000000000000815260040180806020018281038252601b8152602001807f536166654d6174683a206164646974696f6e206f766572666c6f77000000000081525060200191505060405180910390fd5b8091505092915050565b600080831415613a285760009050613a95565b6000828402905082848281613a3957fe5b0414613a90576040517f08c379a0000000000000000000000000000000000000000000000000000000008152600401808060200182810382526021815260200180615c1f6021913960400191505060405180910390fd5b809150505b92915050565b6000808211613b12576040517f08c379a000000000000000000000000000000000000000000000000000000000815260040180806020018281038252601a8152602001807f536166654d6174683a206469766973696f6e206279207a65726f00000000000081525060200191505060405180910390fd5b818381613b1b57fe5b04905092915050565b613bdf846323b872dd60e01b858585604051602401808473ffffffffffffffffffffffffffffffffffffffff1681526020018373ffffffffffffffffffffffffffffffffffffffff1681526020018281526020019350505050604051602081830303815290604052907bffffffffffffffffffffffffffffffffffffffffffffffffffffffff19166020820180517bffffffffffffffffffffffffffffffffffffffffffffffffffffffff8381831617835250505050615089565b50505050565b7fffffffffffffffffffffffffffffffffffffffff00000000000000000000000160001b816000016000600160001b815260200190815260200160002081905550600160001b8160010160007fffffffffffffffffffffffffffffffffffffffff00000000000000000000000160001b81526020019081526020016000208190555050565b6000816bffffffffffffffffffffffff166060846bffffffffffffffffffffffff16901b60c08667ffffffffffffffff16901b010160001b90509392505050565b600082821115613d23576040517f08c379a000000000000000000000000000000000000000000000000000000000815260040180806020018281038252601e8152602001807f536166654d6174683a207375627472616374696f6e206f766572666c6f77000081525060200191505060405180910390fd5b818303905092915050565b6000680100000000000000008210613d91576040517f08c379a0000000000000000000000000000000000000000000000000000000008152600401808060200182810382526026815260200180615c406026913960400191505060405180910390fd5b819050919050565b60008073ffffffffffffffffffffffffffffffffffffffff168273ffffffffffffffffffffffffffffffffffffffff161415613e3d576040517f08c379a000000000000000000000000000000000000000000000000000000000815260040180806020018281038252601a8152602001807f43616e6e6f7420696e73657274207a65726f206164647265737300000000000081525060200191505060405180910390fd5b7fffffffffffffffffffffffffffffffffffffffffffffffffffffffffffffffff67ffffffffffffffff168367ffffffffffffffff161415613ee7576040517f08c379a00000000000000000000000000000000000000000000000000000000081526004018080602001828103825260188152602001807f43616e6e6f7420696e73657274206d61782075696e743634000000000000000081525060200191505060405180910390fd5b60008460010160008473ffffffffffffffffffffffffffffffffffffffff1673ffffffffffffffffffffffffffffffffffffffff16815260200190815260200160002060009054906101000a900467ffffffffffffffff1667ffffffffffffffff16141580613fcf5750600073ffffffffffffffffffffffffffffffffffffffff168460000160006001860167ffffffffffffffff1667ffffffffffffffff16815260200190815260200160002060009054906101000a900473ffffffffffffffffffffffffffffffffffffffff1673ffffffffffffffffffffffffffffffffffffffff1614155b15613fdd57600090506140b8565b818460000160006001860167ffffffffffffffff1667ffffffffffffffff16815260200190815260200160002060006101000a81548173ffffffffffffffffffffffffffffffffffffffff021916908373ffffffffffffffffffffffffffffffffffffffff160217905550600183018460010160008473ffffffffffffffffffffffffffffffffffffffff1673ffffffffffffffffffffffffffffffffffffffff16815260200190815260200160002060006101000a81548167ffffffffffffffff021916908367ffffffffffffffff160217905550600190505b9392505050565b6000808360010160008473ffffffffffffffffffffffffffffffffffffffff1673ffffffffffffffffffffffffffffffffffffffff16815260200190815260200160002060009054906101000a900467ffffffffffffffff1667ffffffffffffffff161415905092915050565b600061413883836140bf565b6141aa576040517f08c379a000000000000000000000000000000000000000000000000000000000815260040180806020018281038252601b8152602001807f4d7573742068617665204164647265737320746f20676574204944000000000081525060200191505060405180910390fd5b60018360010160008473ffffffffffffffffffffffffffffffffffffffff1673ffffffffffffffffffffffffffffffffffffffff16815260200190815260200160002060009054906101000a900467ffffffffffffffff1603905092915050565b600080600060c08460001c901c925060608460001c901c91508360001c90509193909250565b60007fffffffffffffffffffffffffffffffffffffffff00000000000000000000000160001b8214156142af576040517f08c379a0000000000000000000000000000000000000000000000000000000008152600401808060200182810382526022815260200180615afd6022913960400191505060405180910390fd5b60008360000160008481526020019081526020016000205490506000801b811415614325576040517f08c379a000000000000000000000000000000000000000000000000000000000815260040180806020018281038252602a815260200180615bbf602a913960400191505060405180910390fd5b8091505092915050565b60006c010000000000000000000000008210614396576040517f08c379a00000000000000000000000000000000000000000000000000000000081526004018080602001828103825260268152602001806159bb6026913960400191505060405180910390fd5b819050919050565b60006143eb6103e86143dd60026000898152602001908152602001600020600a0154856bffffffffffffffffffffffff16613a1590919063ffffffff16565b613a9b90919063ffffffff16565b905060026000868152602001908152602001600020600901600c9054906101000a900460ff1615614448576144438561443b83856bffffffffffffffffffffffff1661398d90919063ffffffff16565b60008661482f565b614589565b60008061446a600260008981526020019081526020016000206008015461420b565b9250925050600061449287866bffffffffffffffffffffffff16613cab90919063ffffffff16565b905060006144db6144cc876bffffffffffffffffffffffff166144be8589613a1590919063ffffffff16565b613a9b90919063ffffffff16565b8361398d90919063ffffffff16565b90506000614520856bffffffffffffffffffffffff16614512866bffffffffffffffffffffffff168c613a1590919063ffffffff16565b613a9b90919063ffffffff16565b905061452e8a83838b61482f565b6145838a614565896bffffffffffffffffffffffff166145578d8b613a1590919063ffffffff16565b613a9b90919063ffffffff16565b6000600a60009054906101000a900467ffffffffffffffff1661482f565b50505050505b5050505050565b600033905090565b6000600160001b8214156145af57600090506145ce565b6000801b83600001600084815260200190815260200160002054141590505b92915050565b6000806145e18484614924565b90508015614607576000801b846001016000858152602001908152602001600020819055505b8091505092915050565b6000806000806146208661420b565b92509250925060008060006146348861420b565b925092509250614669846bffffffffffffffffffffffff16836bffffffffffffffffffffffff16613a1590919063ffffffff16565b614698826bffffffffffffffffffffffff16876bffffffffffffffffffffffff16613a1590919063ffffffff16565b10156146ad5760019650505050505050614829565b6146dc846bffffffffffffffffffffffff16836bffffffffffffffffffffffff16613a1590919063ffffffff16565b61470b826bffffffffffffffffffffffff16876bffffffffffffffffffffffff16613a1590919063ffffffff16565b11156147205760009650505050505050614829565b816bffffffffffffffffffffffff16856bffffffffffffffffffffffff1610156147535760019650505050505050614829565b816bffffffffffffffffffffffff16856bffffffffffffffffffffffff1611156147865760009650505050505050614829565b8267ffffffffffffffff168667ffffffffffffffff1614156147f3576040517f08c379a000000000000000000000000000000000000000000000000000000000815260040180806020018281038252602d815260200180615cb1602d913960400191505060405180910390fd5b8267ffffffffffffffff168667ffffffffffffffff16101561481e5760019650505050505050614829565b600096505050505050505b92915050565b600061484582600561517890919063ffffffff16565b905060008411156148b2576148b181856002600089815260200190815260200160002060000160009054906101000a900473ffffffffffffffffffffffffffffffffffffffff1673ffffffffffffffffffffffffffffffffffffffff166149cf9092919063ffffffff16565b5b600083111561491d5761491c81846002600089815260200190815260200160002060010160009054906101000a900473ffffffffffffffffffffffffffffffffffffffff1673ffffffffffffffffffffffffffffffffffffffff166149cf9092919063ffffffff16565b5b5050505050565b60006149308383614598565b61493d57600090506149c9565b60008360010160008481526020019081526020016000205490506000846000016000858152602001908152602001600020549050808560000160008481526020019081526020016000208190555081856001016000838152602001908152602001600020819055506000801b856000016000868152602001908152602001600020819055506001925050505b92915050565b614a6c8363a9059cbb60e01b8484604051602401808373ffffffffffffffffffffffffffffffffffffffff16815260200182815260200192505050604051602081830303815290604052907bffffffffffffffffffffffffffffffffffffffffffffffffffffffff19166020820180517bffffffffffffffffffffffffffffffffffffffffffffffffffffffff8381831617835250505050615089565b505050565b600080600360008a815260200190815260200160002060009054906101000a900473ffffffffffffffffffffffffffffffffffffffff169050600073ffffffffffffffffffffffffffffffffffffffff168173ffffffffffffffffffffffffffffffffffffffff1614614c76576319a05a7e60e01b7bffffffffffffffffffffffffffffffffffffffffffffffffffffffff19168173ffffffffffffffffffffffffffffffffffffffff166319a05a7e858c89896040518563ffffffff1660e01b8152600401808573ffffffffffffffffffffffffffffffffffffffff168152602001848152602001806020018281038252848482818152602001925080828437600081840152601f19601f8201169050808301925050509550505050505060206040518083038186803b158015614ba857600080fd5b505afa158015614bbc573d6000803e3d6000fd5b505050506040513d6020811015614bd257600080fd5b81019080805190602001909291905050507bffffffffffffffffffffffffffffffffffffffffffffffffffffffff191614614c75576040517f08c379a000000000000000000000000000000000000000000000000000000000815260040180806020018281038252601f8152602001807f75736572206e6f7420616c6c6f77656420746f20706c616365206f726465720081525060200191505060405180910390fd5b5b50600080614c99600260008c81526020019081526020016000206004015461420b565b925092505060005b8951811015614d9157614cec898281518110614cb957fe5b60200260200101516bffffffffffffffffffffffff16836bffffffffffffffffffffffff16613a1590919063ffffffff16565b614d2e846bffffffffffffffffffffffff168c8481518110614d0a57fe5b60200260200101516bffffffffffffffffffffffff16613a1590919063ffffffff16565b10614d84576040517f08c379a0000000000000000000000000000000000000000000000000000000008152600401808060200182810382526029815260200180615cde6029913960400191505060405180910390fd5b8080600101915050614ca1565b5050506000614d9f83611b44565b91506000600260008b815260200190815260200160002060050154905060005b89518110156150185760008a8281518110614dd657fe5b60200260200101516bffffffffffffffffffffffff1611614e42576040517f08c379a0000000000000000000000000000000000000000000000000000000008152600401808060200182810382526025815260200180615ad86025913960400191505060405180910390fd5b81898281518110614e4f57fe5b60200260200101516bffffffffffffffffffffffff1611614ed8576040517f08c379a000000000000000000000000000000000000000000000000000000000815260040180806020018281038252600f8152602001807f6f7264657220746f6f20736d616c6c000000000000000000000000000000000081525060200191505060405180910390fd5b614f42614f0c858c8481518110614eeb57fe5b60200260200101518c8581518110614eff57fe5b6020026020010151613c6a565b898381518110614f1857fe5b6020026020010151600160008f815260200190815260200160002061524b9092919063ffffffff16565b1561500b57614f7b898281518110614f5657fe5b60200260200101516bffffffffffffffffffffffff168461398d90919063ffffffff16565b92508367ffffffffffffffff168b7f9304f2fc7ed6d42c0400e678dbc7283e1e9054889c3afea5f965adff66ef9eac8c8481518110614fb657fe5b60200260200101518c8581518110614fca57fe5b602002602001015160405180836bffffffffffffffffffffffff168152602001826bffffffffffffffffffffffff1681526020019250505060405180910390a35b8080600101915050614dbf565b5061507c333084600260008f815260200190815260200160002060010160009054906101000a900473ffffffffffffffffffffffffffffffffffffffff1673ffffffffffffffffffffffffffffffffffffffff16613b24909392919063ffffffff16565b5050979650505050505050565b60606150eb826040518060400160405280602081526020017f5361666545524332303a206c6f772d6c6576656c2063616c6c206661696c65648152508573ffffffffffffffffffffffffffffffffffffffff166154f99092919063ffffffff16565b90506000815111156151735780806020019051602081101561510c57600080fd5b8101908080519060200190929190505050615172576040517f08c379a000000000000000000000000000000000000000000000000000000000815260040180806020018281038252602a815260200180615d30602a913960400191505060405180910390fd5b5b505050565b60006151848383615511565b6151f6576040517f08c379a000000000000000000000000000000000000000000000000000000000815260040180806020018281038252601b8152602001807f4d757374206861766520494420746f206765742041646472657373000000000081525060200191505060405180910390fd5b8260000160006001840167ffffffffffffffff1667ffffffffffffffff16815260200190815260200160002060009054906101000a900473ffffffffffffffffffffffffffffffffffffffff16905092915050565b6000806152578461420b565b9250505060006bffffffffffffffffffffffff16816bffffffffffffffffffffffff1614156152ee576040517f08c379a000000000000000000000000000000000000000000000000000000000815260040180806020018281038252601f8152602001807f496e73657274696e67207a65726f206973206e6f7420737570706f727465640081525060200191505060405180910390fd5b600160001b841415801561532557507fffffffffffffffffffffffffffffffffffffffff00000000000000000000000160001b8414155b615397576040517f08c379a000000000000000000000000000000000000000000000000000000000815260040180806020018281038252601e8152602001807f496e73657274696e6720656c656d656e74206973206e6f742076616c6964000081525060200191505060405180910390fd5b6153a18585614598565b156153b05760009150506154f2565b600160001b83141580156153db57506000801b85600101600085815260200190815260200160002054145b156153ea5760009150506154f2565b6153fd848461461190919063ffffffff16565b61540b5760009150506154f2565b5b6000801b8560000160008581526020019081526020016000205414156154495784600101600084815260200190815260200160002054925061540c565b6000808490505b80915086600001600082815260200190815260200160002054905061547e868261461190919063ffffffff16565b615450578587600001600084815260200190815260200160002081905550858760010160008381526020019081526020016000208190555081876001016000888152602001908152602001600020819055508087600001600088815260200190815260200160002081905550600193505050505b9392505050565b60606155088484600085615597565b90509392505050565b60008073ffffffffffffffffffffffffffffffffffffffff168360000160006001850167ffffffffffffffff1667ffffffffffffffff16815260200190815260200160002060009054906101000a900473ffffffffffffffffffffffffffffffffffffffff1673ffffffffffffffffffffffffffffffffffffffff161415905092915050565b6060824710156155f2576040517f08c379a0000000000000000000000000000000000000000000000000000000008152600401808060200182810382526026815260200180615b1f6026913960400191505060405180910390fd5b6155fb85615740565b61566d576040517f08c379a000000000000000000000000000000000000000000000000000000000815260040180806020018281038252601d8152602001807f416464726573733a2063616c6c20746f206e6f6e2d636f6e747261637400000081525060200191505060405180910390fd5b600060608673ffffffffffffffffffffffffffffffffffffffff1685876040518082805190602001908083835b602083106156bd578051825260208201915060208101905060208303925061569a565b6001836020036101000a03801982511681845116808217855250505050505090500191505060006040518083038185875af1925050503d806000811461571f576040519150601f19603f3d011682016040523d82523d6000602084013e615724565b606091505b5091509150615734828286615753565b92505050949350505050565b600080823b905060008111915050919050565b6060831561576357829050615818565b6000835111156157765782518084602001fd5b816040517f08c379a00000000000000000000000000000000000000000000000000000000081526004018080602001828103825283818151815260200191508051906020019080838360005b838110156157dd5780820151818401526020810190506157c2565b50505050905090810190601f16801561580a5780820380516001836020036101000a031916815260200191505b509250505060405180910390fd5b9392505050565b828054600181600116156101000203166002900490600052602060002090601f016020900481019282601f1061586057805160ff191683800117855561588e565b8280016001018555821561588e579182015b8281111561588d578251825591602001919060010190615872565b5b50905061589b919061599d565b5090565b50805460018160011615610100020316600290046000825580601f106158c557506158e4565b601f0160209004906000526020600020908101906158e3919061599d565b5b50565b604051806101c00160405280600073ffffffffffffffffffffffffffffffffffffffff168152602001600073ffffffffffffffffffffffffffffffffffffffff1681526020016000815260200160008152602001600080191681526020016000815260200160008152602001600080191681526020016000801916815260200160006bffffffffffffffffffffffff16815260200160001515815260200160001515815260200160008152602001600081525090565b5b808211156159b657600081600090555060010161599e565b509056fe53616665436173743a2076616c756520646f65736e27742066697420696e20393620626974736e6f7420616c6c6f77656420746f20736574746c652061756374696f6e2061746f6d6963616c6c7970726563616c63756c61746553656c6c416d6f756e7453756d20697320616c726561647920746f6f20616476616e6365644f6e6c792074686520757365722063616e2063616e63656c20686973206f72646572734f776e61626c653a206e6577206f776e657220697320746865207a65726f2061646472657373746f6b656e732063616e6e6f742062652061756374696f6e656420666f7220667265656e6f206c6f6e67657220696e206f7264657220706c6163656d656e7420616e642063616e63656c6174696f6e2070686173655f6d696e427579416d6f756e7473206d7573742062652067726561746572207468616e2030547279696e6720746f20676574206e657874206f66206c61737420656c656d656e74416464726573733a20696e73756666696369656e742062616c616e636520666f722063616c6c466565206973206e6f7420616c6c6f77656420746f2062652073657420686967686572207468616e20312e352561756374696f6e20656e642064617465206d75737420626520696e20746865206675747572654f6e6c79206f6e65206f726465722063616e20626520706c616365642061746f6d6963616c6c79547279696e6720746f20676574206e657874206f66206e6f6e2d6578697374656e7420656c656d656e746d696e696d756d42696464696e67416d6f756e745065724f72646572206973206e6f7420616c6c6f77656420746f206265207a65726f536166654d6174683a206d756c7469706c69636174696f6e206f766572666c6f7753616665436173743a2076616c756520646f65736e27742066697420696e20363420626974736f6e6c7920616c6c6f77656420746f20636c61696d20666f722073616d65207573657241756374696f6e206e6f7420696e20736f6c7574696f6e207375626d697373696f6e20706861736575736572206973206e6f7420616c6c6f77656420746f20706c6163652073616d65206f726465722074776963656c696d6974207072696365206e6f7420626574746572207468616e206d696d696d616c206f6666657274696d6520706572696f647320617265206e6f7420636f6e6669677572656420636f72726563746c795361666545524332303a204552433230206f7065726174696f6e20646964206e6f7420737563636565646e6f206c6f6e67657220696e206f7264657220706c6163656d656e74207068617365a264697066735822122076c9293efbc96fb5599760f761afb1cbba81cecb58babc20fbcb4cf8bc65102264736f6c634300060c0033",
  "devdoc": {
    "kind": "dev",
    "methods": {
      "owner()": {
        "details": "Returns the address of the current owner."
      },
      "renounceOwnership()": {
        "details": "Leaves the contract without owner. It will not be possible to call `onlyOwner` functions anymore. Can only be called by the current owner. NOTE: Renouncing ownership will leave the contract without an owner, thereby removing any functionality that is only available to the owner."
      },
      "transferOwnership(address)": {
        "details": "Transfers ownership of the contract to a new account (`newOwner`). Can only be called by the current owner."
      }
    },
    "version": 1
  },
  "userdoc": {
    "kind": "user",
    "methods": {
      "claimFromParticipantOrder(uint256,bytes32[])": {
        "notice": "First we will remove the given orders from contract sell orders list.*"
      }
    },
    "version": 1
  },
  "storageLayout": {
    "storage": [
      {
        "astId": 7,
        "contract": "contracts/AnnexBatchAuction.sol:AnnexBatchAuction",
        "label": "_owner",
        "offset": 0,
        "slot": "0",
        "type": "t_address"
      },
      {
        "astId": 1385,
        "contract": "contracts/AnnexBatchAuction.sol:AnnexBatchAuction",
        "label": "sellOrders",
        "offset": 0,
        "slot": "1",
        "type": "t_mapping(t_uint256,t_struct(Data)3405_storage)"
      },
      {
        "astId": 1389,
        "contract": "contracts/AnnexBatchAuction.sol:AnnexBatchAuction",
        "label": "auctionData",
        "offset": 0,
        "slot": "2",
        "type": "t_mapping(t_uint256,t_struct(AuctionData)1381_storage)"
      },
      {
        "astId": 1393,
        "contract": "contracts/AnnexBatchAuction.sol:AnnexBatchAuction",
        "label": "auctionAccessManager",
        "offset": 0,
        "slot": "3",
        "type": "t_mapping(t_uint256,t_address)"
      },
      {
        "astId": 1397,
        "contract": "contracts/AnnexBatchAuction.sol:AnnexBatchAuction",
        "label": "auctionAccessData",
        "offset": 0,
        "slot": "4",
        "type": "t_mapping(t_uint256,t_bytes_storage)"
      },
      {
        "astId": 1399,
        "contract": "contracts/AnnexBatchAuction.sol:AnnexBatchAuction",
        "label": "registeredUsers",
        "offset": 0,
        "slot": "5",
        "type": "t_struct(Data)3214_storage"
      },
      {
        "astId": 1401,
        "contract": "contracts/AnnexBatchAuction.sol:AnnexBatchAuction",
        "label": "numUsers",
        "offset": 0,
        "slot": "7",
        "type": "t_uint64"
      },
      {
        "astId": 1403,
        "contract": "contracts/AnnexBatchAuction.sol:AnnexBatchAuction",
        "label": "auctionCounter",
        "offset": 0,
        "slot": "8",
        "type": "t_uint256"
      },
      {
        "astId": 1422,
        "contract": "contracts/AnnexBatchAuction.sol:AnnexBatchAuction",
        "label": "feeNumerator",
        "offset": 0,
        "slot": "9",
        "type": "t_uint256"
      },
      {
        "astId": 1428,
        "contract": "contracts/AnnexBatchAuction.sol:AnnexBatchAuction",
        "label": "feeReceiverUserId",
        "offset": 0,
        "slot": "10",
        "type": "t_uint64"
      }
    ],
    "types": {
      "t_address": {
        "encoding": "inplace",
        "label": "address",
        "numberOfBytes": "20"
      },
      "t_bool": {
        "encoding": "inplace",
        "label": "bool",
        "numberOfBytes": "1"
      },
      "t_bytes32": {
        "encoding": "inplace",
        "label": "bytes32",
        "numberOfBytes": "32"
      },
      "t_bytes_storage": {
        "encoding": "bytes",
        "label": "bytes",
        "numberOfBytes": "32"
      },
      "t_contract(IERC20)615": {
        "encoding": "inplace",
        "label": "contract IERC20",
        "numberOfBytes": "20"
      },
      "t_mapping(t_address,t_uint64)": {
        "encoding": "mapping",
        "key": "t_address",
        "label": "mapping(address => uint64)",
        "numberOfBytes": "32",
        "value": "t_uint64"
      },
      "t_mapping(t_bytes32,t_bytes32)": {
        "encoding": "mapping",
        "key": "t_bytes32",
        "label": "mapping(bytes32 => bytes32)",
        "numberOfBytes": "32",
        "value": "t_bytes32"
      },
      "t_mapping(t_uint256,t_address)": {
        "encoding": "mapping",
        "key": "t_uint256",
        "label": "mapping(uint256 => address)",
        "numberOfBytes": "32",
        "value": "t_address"
      },
      "t_mapping(t_uint256,t_bytes_storage)": {
        "encoding": "mapping",
        "key": "t_uint256",
        "label": "mapping(uint256 => bytes)",
        "numberOfBytes": "32",
        "value": "t_bytes_storage"
      },
      "t_mapping(t_uint256,t_struct(AuctionData)1381_storage)": {
        "encoding": "mapping",
        "key": "t_uint256",
        "label": "mapping(uint256 => struct AnnexBatchAuction.AuctionData)",
        "numberOfBytes": "32",
        "value": "t_struct(AuctionData)1381_storage"
      },
      "t_mapping(t_uint256,t_struct(Data)3405_storage)": {
        "encoding": "mapping",
        "key": "t_uint256",
        "label": "mapping(uint256 => struct IterableOrderedOrderSet.Data)",
        "numberOfBytes": "32",
        "value": "t_struct(Data)3405_storage"
      },
      "t_mapping(t_uint64,t_address)": {
        "encoding": "mapping",
        "key": "t_uint64",
        "label": "mapping(uint64 => address)",
        "numberOfBytes": "32",
        "value": "t_address"
      },
      "t_struct(AuctionData)1381_storage": {
        "encoding": "inplace",
        "label": "struct AnnexBatchAuction.AuctionData",
        "members": [
          {
            "astId": 1354,
            "contract": "contracts/AnnexBatchAuction.sol:AnnexBatchAuction",
            "label": "auctioningToken",
            "offset": 0,
            "slot": "0",
            "type": "t_contract(IERC20)615"
          },
          {
            "astId": 1356,
            "contract": "contracts/AnnexBatchAuction.sol:AnnexBatchAuction",
            "label": "biddingToken",
            "offset": 0,
            "slot": "1",
            "type": "t_contract(IERC20)615"
          },
          {
            "astId": 1358,
            "contract": "contracts/AnnexBatchAuction.sol:AnnexBatchAuction",
            "label": "orderCancellationEndDate",
            "offset": 0,
            "slot": "2",
            "type": "t_uint256"
          },
          {
            "astId": 1360,
            "contract": "contracts/AnnexBatchAuction.sol:AnnexBatchAuction",
            "label": "auctionEndDate",
            "offset": 0,
            "slot": "3",
            "type": "t_uint256"
          },
          {
            "astId": 1362,
            "contract": "contracts/AnnexBatchAuction.sol:AnnexBatchAuction",
            "label": "initialAuctionOrder",
            "offset": 0,
            "slot": "4",
            "type": "t_bytes32"
          },
          {
            "astId": 1364,
            "contract": "contracts/AnnexBatchAuction.sol:AnnexBatchAuction",
            "label": "minimumBiddingAmountPerOrder",
            "offset": 0,
            "slot": "5",
            "type": "t_uint256"
          },
          {
            "astId": 1366,
            "contract": "contracts/AnnexBatchAuction.sol:AnnexBatchAuction",
            "label": "interimSumBidAmount",
            "offset": 0,
            "slot": "6",
            "type": "t_uint256"
          },
          {
            "astId": 1368,
            "contract": "contracts/AnnexBatchAuction.sol:AnnexBatchAuction",
            "label": "interimOrder",
            "offset": 0,
            "slot": "7",
            "type": "t_bytes32"
          },
          {
            "astId": 1370,
            "contract": "contracts/AnnexBatchAuction.sol:AnnexBatchAuction",
            "label": "clearingPriceOrder",
            "offset": 0,
            "slot": "8",
            "type": "t_bytes32"
          },
          {
            "astId": 1372,
            "contract": "contracts/AnnexBatchAuction.sol:AnnexBatchAuction",
            "label": "volumeClearingPriceOrder",
            "offset": 0,
            "slot": "9",
            "type": "t_uint96"
          },
          {
            "astId": 1374,
            "contract": "contracts/AnnexBatchAuction.sol:AnnexBatchAuction",
            "label": "minFundingThresholdNotReached",
            "offset": 12,
            "slot": "9",
            "type": "t_bool"
          },
          {
            "astId": 1376,
            "contract": "contracts/AnnexBatchAuction.sol:AnnexBatchAuction",
            "label": "isAtomicClosureAllowed",
            "offset": 13,
            "slot": "9",
            "type": "t_bool"
          },
          {
            "astId": 1378,
            "contract": "contracts/AnnexBatchAuction.sol:AnnexBatchAuction",
            "label": "feeNumerator",
            "offset": 0,
            "slot": "10",
            "type": "t_uint256"
          },
          {
            "astId": 1380,
            "contract": "contracts/AnnexBatchAuction.sol:AnnexBatchAuction",
            "label": "minFundingThreshold",
            "offset": 0,
            "slot": "11",
            "type": "t_uint256"
          }
        ],
        "numberOfBytes": "384"
      },
      "t_struct(Data)3214_storage": {
        "encoding": "inplace",
        "label": "struct IdToAddressBiMap.Data",
        "members": [
          {
            "astId": 3209,
            "contract": "contracts/AnnexBatchAuction.sol:AnnexBatchAuction",
            "label": "idToAddress",
            "offset": 0,
            "slot": "0",
            "type": "t_mapping(t_uint64,t_address)"
          },
          {
            "astId": 3213,
            "contract": "contracts/AnnexBatchAuction.sol:AnnexBatchAuction",
            "label": "addressToId",
            "offset": 0,
            "slot": "1",
            "type": "t_mapping(t_address,t_uint64)"
          }
        ],
        "numberOfBytes": "64"
      },
      "t_struct(Data)3405_storage": {
        "encoding": "inplace",
        "label": "struct IterableOrderedOrderSet.Data",
        "members": [
          {
            "astId": 3400,
            "contract": "contracts/AnnexBatchAuction.sol:AnnexBatchAuction",
            "label": "nextMap",
            "offset": 0,
            "slot": "0",
            "type": "t_mapping(t_bytes32,t_bytes32)"
          },
          {
            "astId": 3404,
            "contract": "contracts/AnnexBatchAuction.sol:AnnexBatchAuction",
            "label": "prevMap",
            "offset": 0,
            "slot": "1",
            "type": "t_mapping(t_bytes32,t_bytes32)"
          }
        ],
        "numberOfBytes": "64"
      },
      "t_uint256": {
        "encoding": "inplace",
        "label": "uint256",
        "numberOfBytes": "32"
      },
      "t_uint64": {
        "encoding": "inplace",
        "label": "uint64",
        "numberOfBytes": "8"
      },
      "t_uint96": {
        "encoding": "inplace",
        "label": "uint96",
        "numberOfBytes": "12"
      }
    }
  }
}