{
  "address": "0xe7915A4cAaa9e63C68173C90735706C4996ce511",
  "abi": [
    {
      "inputs": [],
      "stateMutability": "nonpayable",
      "type": "constructor"
    },
    {
      "anonymous": false,
      "inputs": [
        {
          "indexed": true,
          "internalType": "string",
          "name": "_name",
          "type": "string"
        },
        {
          "indexed": false,
          "internalType": "string",
          "name": "_data",
          "type": "string"
        }
      ],
      "name": "DocumentRemoved",
      "type": "event"
    },
    {
      "anonymous": false,
      "inputs": [
        {
          "indexed": true,
          "internalType": "string",
          "name": "_name",
          "type": "string"
        },
        {
          "indexed": false,
          "internalType": "string",
          "name": "_data",
          "type": "string"
        }
      ],
      "name": "DocumentUpdated",
      "type": "event"
    },
    {
      "anonymous": false,
      "inputs": [
        {
          "indexed": true,
          "internalType": "address",
          "name": "previousOwner",
          "type": "address"
        },
        {
          "indexed": true,
          "internalType": "address",
          "name": "newOwner",
          "type": "address"
        }
      ],
      "name": "OwnershipTransferred",
      "type": "event"
    },
    {
      "inputs": [
        {
          "internalType": "string",
          "name": "_name",
          "type": "string"
        }
      ],
      "name": "_removeDocument",
      "outputs": [],
      "stateMutability": "nonpayable",
      "type": "function"
    },
    {
      "inputs": [
        {
          "internalType": "string",
          "name": "_name",
          "type": "string"
        },
        {
          "internalType": "string",
          "name": "_data",
          "type": "string"
        }
      ],
      "name": "_setDocument",
      "outputs": [],
      "stateMutability": "nonpayable",
      "type": "function"
    },
    {
      "inputs": [],
      "name": "getAllDocuments",
      "outputs": [
        {
          "internalType": "bytes",
          "name": "",
          "type": "bytes"
        }
      ],
      "stateMutability": "view",
      "type": "function"
    },
    {
      "inputs": [
        {
          "internalType": "string",
          "name": "_name",
          "type": "string"
        }
      ],
      "name": "getDocument",
      "outputs": [
        {
          "internalType": "string",
          "name": "",
          "type": "string"
        },
        {
          "internalType": "uint256",
          "name": "",
          "type": "uint256"
        }
      ],
      "stateMutability": "view",
      "type": "function"
    },
    {
      "inputs": [],
      "name": "getDocumentCount",
      "outputs": [
        {
          "internalType": "uint256",
          "name": "",
          "type": "uint256"
        }
      ],
      "stateMutability": "view",
      "type": "function"
    },
    {
      "inputs": [
        {
          "internalType": "uint256",
          "name": "_index",
          "type": "uint256"
        }
      ],
      "name": "getDocumentName",
      "outputs": [
        {
          "internalType": "string",
          "name": "",
          "type": "string"
        }
      ],
      "stateMutability": "view",
      "type": "function"
    },
    {
      "inputs": [],
      "name": "owner",
      "outputs": [
        {
          "internalType": "address",
          "name": "",
          "type": "address"
        }
      ],
      "stateMutability": "view",
      "type": "function"
    },
    {
      "inputs": [],
      "name": "renounceOwnership",
      "outputs": [],
      "stateMutability": "nonpayable",
      "type": "function"
    },
    {
      "inputs": [
        {
          "internalType": "address",
          "name": "newOwner",
          "type": "address"
        }
      ],
      "name": "transferOwnership",
      "outputs": [],
      "stateMutability": "nonpayable",
      "type": "function"
    }
  ],
  "transactionHash": "0x3667944948ba1362b014e5211e64010888bee5da26dcd0530015c0de7d58ed97",
  "args": [],
  "solcInputHash": "0474dfd8f11504e81dcbbcb6a2422c5f",
  "bytecode": "0x608060405234801561001057600080fd5b5060006100216100c460201b60201c565b9050806000806101000a81548173ffffffffffffffffffffffffffffffffffffffff021916908373ffffffffffffffffffffffffffffffffffffffff1602179055508073ffffffffffffffffffffffffffffffffffffffff16600073ffffffffffffffffffffffffffffffffffffffff167f8be0079c531659141344cd1fd0a4f28419497f9722a3daafe3b4186f6b6457e060405160405180910390a3506100cc565b600033905090565b611a67806100db6000396000f3fe608060405234801561001057600080fd5b50600436106100935760003560e01c80639fa5f50b116100665780639fa5f50b1461010f578063c6b547e61461012d578063de7afa4b1461015d578063f2fde38b14610179578063f3494ae91461019557610093565b80633d1c227314610098578063715018a6146100b65780637ccb6a64146100c05780638da5cb5b146100f1575b600080fd5b6100a06101b1565b6040516100ad91906118db565b60405180910390f35b6100be6101be565b005b6100da60048036038101906100d59190611374565b61032b565b6040516100e8929190611809565b60405180910390f35b6100f961043b565b6040516101069190611786565b60405180910390f35b610117610464565b60405161012491906117a1565b60405180910390f35b6101476004803603810190610142919061142e565b610636565b60405161015491906117e7565b60405180910390f35b61017760048036038101906101729190611374565b610736565b005b610193600480360381019061018e919061134b565b610a83565b005b6101af60048036038101906101aa91906113b9565b610c75565b005b6000600380549050905090565b6101c6611019565b73ffffffffffffffffffffffffffffffffffffffff166101e461043b565b73ffffffffffffffffffffffffffffffffffffffff161461026d576040517f08c379a00000000000000000000000000000000000000000000000000000000081526004018080602001828103825260208152602001807f4f776e61626c653a2063616c6c6572206973206e6f7420746865206f776e657281525060200191505060405180910390fd5b600073ffffffffffffffffffffffffffffffffffffffff1660008054906101000a900473ffffffffffffffffffffffffffffffffffffffff1673ffffffffffffffffffffffffffffffffffffffff167f8be0079c531659141344cd1fd0a4f28419497f9722a3daafe3b4186f6b6457e060405160405180910390a360008060006101000a81548173ffffffffffffffffffffffffffffffffffffffff021916908373ffffffffffffffffffffffffffffffffffffffff160217905550565b6060600060018484604051610341929190611756565b908152602001604051809103902060010160018585604051610364929190611756565b908152602001604051809103902060000160049054906101000a900467ffffffffffffffff1667ffffffffffffffff16818054600181600116156101000203166002900480601f0160208091040260200160405190810160405280929190818152602001828054600181600116156101000203166002900480156104295780601f106103fe57610100808354040283529160200191610429565b820191906000526020600020905b81548152906001019060200180831161040c57829003601f168201915b50505050509150915091509250929050565b60008060009054906101000a900473ffffffffffffffffffffffffffffffffffffffff16905090565b606060008060038054905090508181101561047e57600080fd5b60016003805490500381111561049a5760016003805490500390505b6000600183830301604002905060008167ffffffffffffffff811180156104c057600080fd5b506040519080825280601f01601f1916602001820160405280156104f35781602001600182028036833780820191505090505b5090506000602067ffffffffffffffff8111801561051057600080fd5b506040519080825280601f01601f1916602001820160405280156105435781602001600182028036833780820191505090505b50905060008590505b84811161062a576003818154811061056057fe5b906000526020600020018054600181600116156101000203166002900480601f0160208091040260200160405190810160405280929190818152602001828054600181600116156101000203166002900480156105fe5780601f106105d3576101008083540402835291602001916105fe565b820191906000526020600020905b8154815290600101906020018083116105e157829003601f168201915b50505050509150610610848385611021565b61061982611082565b84039350808060010191505061054c565b50819550505050505090565b6060600380549050821061067f576040517f08c379a00000000000000000000000000000000000000000000000000000000081526004016106769061189b565b60405180910390fd5b6003828154811061068c57fe5b906000526020600020018054600181600116156101000203166002900480601f01602080910402602001604051908101604052809291908181526020018280546001816001161561010002031660029004801561072a5780601f106106ff5761010080835404028352916020019161072a565b820191906000526020600020905b81548152906001019060200180831161070d57829003601f168201915b50505050509050919050565b61073e611019565b73ffffffffffffffffffffffffffffffffffffffff1661075c61043b565b73ffffffffffffffffffffffffffffffffffffffff16146107e5576040517f08c379a00000000000000000000000000000000000000000000000000000000081526004018080602001828103825260208152602001807f4f776e61626c653a2063616c6c6572206973206e6f7420746865206f776e657281525060200191505060405180910390fd5b600067ffffffffffffffff1660018383604051610803929190611756565b908152602001604051809103902060000160049054906101000a900467ffffffffffffffff1667ffffffffffffffff161415610874576040517f08c379a000000000000000000000000000000000000000000000000000000000815260040161086b9061185b565b60405180910390fd5b60006001808484604051610889929190611756565b908152602001604051809103902060000160009054906101000a900463ffffffff160390506001600380549050038163ffffffff161461097f576003600160038054905003815481106108d857fe5b9060005260206000200160038263ffffffff16815481106108f557fe5b90600052602060002001908054600181600116156101000203166002900461091e9291906110c1565b5060018101600160038363ffffffff168154811061093857fe5b9060005260206000200160405161094f919061176f565b908152602001604051809103902060000160006101000a81548163ffffffff021916908363ffffffff1602179055505b600380548061098a57fe5b6001900381819060005260206000200160006109a69190611156565b905582826040516109b8929190611756565b60405180910390207f4b5338540b4d1c0f6dd0308a25f633b7ff60472f894d711cff9dd64e35c613b2600185856040516109f3929190611756565b9081526020016040518091039020600101604051610a119190611839565b60405180910390a260018383604051610a2b929190611756565b9081526020016040518091039020600080820160006101000a81549063ffffffff02191690556000820160046101000a81549067ffffffffffffffff0219169055600182016000610a7c9190611156565b5050505050565b610a8b611019565b73ffffffffffffffffffffffffffffffffffffffff16610aa961043b565b73ffffffffffffffffffffffffffffffffffffffff1614610b32576040517f08c379a00000000000000000000000000000000000000000000000000000000081526004018080602001828103825260208152602001807f4f776e61626c653a2063616c6c6572206973206e6f7420746865206f776e657281525060200191505060405180910390fd5b600073ffffffffffffffffffffffffffffffffffffffff168173ffffffffffffffffffffffffffffffffffffffff161415610bb8576040517f08c379a0000000000000000000000000000000000000000000000000000000008152600401808060200182810382526026815260200180611a0c6026913960400191505060405180910390fd5b8073ffffffffffffffffffffffffffffffffffffffff1660008054906101000a900473ffffffffffffffffffffffffffffffffffffffff1673ffffffffffffffffffffffffffffffffffffffff167f8be0079c531659141344cd1fd0a4f28419497f9722a3daafe3b4186f6b6457e060405160405180910390a3806000806101000a81548173ffffffffffffffffffffffffffffffffffffffff021916908373ffffffffffffffffffffffffffffffffffffffff16021790555050565b610c7d611019565b73ffffffffffffffffffffffffffffffffffffffff16610c9b61043b565b73ffffffffffffffffffffffffffffffffffffffff1614610d24576040517f08c379a00000000000000000000000000000000000000000000000000000000081526004018080602001828103825260208152602001807f4f776e61626c653a2063616c6c6572206973206e6f7420746865206f776e657281525060200191505060405180910390fd5b60008484905011610d6a576040517f08c379a0000000000000000000000000000000000000000000000000000000008152600401610d619061187b565b60405180910390fd5b60008282905011610db0576040517f08c379a0000000000000000000000000000000000000000000000000000000008152600401610da7906118bb565b60405180910390fd5b600067ffffffffffffffff1660018585604051610dce929190611756565b908152602001604051809103902060000160049054906101000a900467ffffffffffffffff1667ffffffffffffffff161415610e8a576003848490918060018154018082558091505060019003906000526020600020016000909192909192909192909192509190610e4192919061119e565b5060038054905060018585604051610e5a929190611756565b908152602001604051809103902060000160006101000a81548163ffffffff021916908363ffffffff1602179055505b604051806060016040528060018686604051610ea7929190611756565b908152602001604051809103902060000160009054906101000a900463ffffffff1663ffffffff1681526020014267ffffffffffffffff16815260200183838080601f016020809104026020016040519081016040528093929190818152602001838380828437600081840152601f19601f8201169050808301925050505050505081525060018585604051610f3e929190611756565b908152602001604051809103902060008201518160000160006101000a81548163ffffffff021916908363ffffffff16021790555060208201518160000160046101000a81548167ffffffffffffffff021916908367ffffffffffffffff1602179055506040820151816001019080519060200190610fbe92919061122c565b509050508383604051610fd2929190611756565b60405180910390207fbaa206e5ea800eb88bce099f453fee53295b793b9d5d1cfc4ce4b6db06a34f53838360405161100b9291906117c3565b60405180910390a250505050565b600033905090565b6000602083518161102e57fe5b0490506000602084518161103e57fe5b06111561104e5780806001019150505b60018101905060005b8181101561107b576020810284015185840152602085039450600181019050611057565b5050505050565b6000602082518161108f57fe5b0490506000602083518161109f57fe5b06146110ae5780806001019150505b8080600101915050602081029050919050565b828054600181600116156101000203166002900490600052602060002090601f0160209004810192826110f75760008555611145565b82601f106111085780548555611145565b8280016001018555821561114557600052602060002091601f016020900482015b82811115611144578254825591600101919060010190611129565b5b50905061115291906112ba565b5090565b50805460018160011615610100020316600290046000825580601f1061117c575061119b565b601f01602090049060005260206000209081019061119a91906112ba565b5b50565b828054600181600116156101000203166002900490600052602060002090601f0160209004810192826111d4576000855561121b565b82601f106111ed57803560ff191683800117855561121b565b8280016001018555821561121b579182015b8281111561121a5782358255916020019190600101906111ff565b5b50905061122891906112ba565b5090565b828054600181600116156101000203166002900490600052602060002090601f01602090048101928261126257600085556112a9565b82601f1061127b57805160ff19168380011785556112a9565b828001600101855582156112a9579182015b828111156112a857825182559160200191906001019061128d565b5b5090506112b691906112ba565b5090565b5b808211156112d35760008160009055506001016112bb565b5090565b6000813590506112e6816119dd565b92915050565b60008083601f8401126112fe57600080fd5b8235905067ffffffffffffffff81111561131757600080fd5b60208301915083600182028301111561132f57600080fd5b9250929050565b600081359050611345816119f4565b92915050565b60006020828403121561135d57600080fd5b600061136b848285016112d7565b91505092915050565b6000806020838503121561138757600080fd5b600083013567ffffffffffffffff8111156113a157600080fd5b6113ad858286016112ec565b92509250509250929050565b600080600080604085870312156113cf57600080fd5b600085013567ffffffffffffffff8111156113e957600080fd5b6113f5878288016112ec565b9450945050602085013567ffffffffffffffff81111561141457600080fd5b611420878288016112ec565b925092505092959194509250565b60006020828403121561144057600080fd5b600061144e84828501611336565b91505092915050565b6114608161194e565b82525050565b60006114718261190b565b61147b8185611921565b935061148b818560208601611999565b611494816119cc565b840191505092915050565b60006114ab8385611932565b93506114b883858461198a565b6114c1836119cc565b840190509392505050565b60006114d88385611943565b93506114e583858461198a565b82840190509392505050565b60006114fc82611916565b6115068185611932565b9350611516818560208601611999565b61151f816119cc565b840191505092915050565b600081546001811660008114611547576001811461156d576115b1565b607f60028304166115588187611932565b955060ff1983168652602086019350506115b1565b6002820461157b8187611932565b9550611586856118f6565b60005b828110156115a857815481890152600182019150602081019050611589565b80880195505050505b505092915050565b6000815460018116600081146115d657600181146115fb5761163f565b607f60028304166115e78187611943565b955060ff198316865280860193505061163f565b600282046116098187611943565b9550611614856118f6565b60005b8281101561163657815481890152600182019150602081019050611617565b82880195505050505b505092915050565b6000611654601583611932565b91507f446f63756d656e742073686f756c6420657869737400000000000000000000006000830152602082019050919050565b6000611694601883611932565b91507f5a65726f206e616d65206973206e6f7420616c6c6f77656400000000000000006000830152602082019050919050565b60006116d4601383611932565b91507f496e646578206f7574206f6620626f756e6473000000000000000000000000006000830152602082019050919050565b6000611714601a83611932565b91507f53686f756c64206e6f74206265206120656d70747920646174610000000000006000830152602082019050919050565b61175081611980565b82525050565b60006117638284866114cc565b91508190509392505050565b600061177b82846115b9565b915081905092915050565b600060208201905061179b6000830184611457565b92915050565b600060208201905081810360008301526117bb8184611466565b905092915050565b600060208201905081810360008301526117de81848661149f565b90509392505050565b6000602082019050818103600083015261180181846114f1565b905092915050565b6000604082019050818103600083015261182381856114f1565b90506118326020830184611747565b9392505050565b60006020820190508181036000830152611853818461152a565b905092915050565b6000602082019050818103600083015261187481611647565b9050919050565b6000602082019050818103600083015261189481611687565b9050919050565b600060208201905081810360008301526118b4816116c7565b9050919050565b600060208201905081810360008301526118d481611707565b9050919050565b60006020820190506118f06000830184611747565b92915050565b60008190508160005260206000209050919050565b600081519050919050565b600081519050919050565b600082825260208201905092915050565b600082825260208201905092915050565b600081905092915050565b600061195982611960565b9050919050565b600073ffffffffffffffffffffffffffffffffffffffff82169050919050565b6000819050919050565b82818337600083830152505050565b60005b838110156119b757808201518184015260208101905061199c565b838111156119c6576000848401525b50505050565b6000601f19601f8301169050919050565b6119e68161194e565b81146119f157600080fd5b50565b6119fd81611980565b8114611a0857600080fd5b5056fe4f776e61626c653a206e6577206f776e657220697320746865207a65726f2061646472657373a26469706673582212202e224470abca64ef80a954543c39081ef26f65fc3ef7b44996a3376adb7a83f564736f6c63430007060033",
  "devdoc": {
    "kind": "dev",
    "methods": {
      "_removeDocument(string)": {
        "details": "Can only be executed by the owner of the contract.",
        "params": {
          "_name": "Name of the document. It should be unique always"
        }
      },
      "_setDocument(string,string)": {
        "details": "Can only be executed by the owner of the contract.",
        "params": {
          "_data": "Off-chain data of the document from where it is accessible to investors/advisors to read.",
          "_name": "Name of the document. It should be unique always"
        }
      },
      "getAllDocuments()": {
        "returns": {
          "_0": "string List of all documents names present in the contract."
        }
      },
      "getDocument(string)": {
        "params": {
          "_name": "Name of the document"
        },
        "returns": {
          "_0": "string The data associated with the document.",
          "_1": "uint256 the timestamp at which the document was last modified."
        }
      },
      "getDocumentCount()": {
        "returns": {
          "_0": "uint256 Count of the document names present in the contract."
        }
      },
      "getDocumentName(uint256)": {
        "returns": {
          "_0": "string Name of the document name."
        }
      },
      "owner()": {
        "details": "Returns the address of the current owner."
      },
      "renounceOwnership()": {
        "details": "Leaves the contract without owner. It will not be possible to call `onlyOwner` functions anymore. Can only be called by the current owner. NOTE: Renouncing ownership will leave the contract without an owner, thereby removing any functionality that is only available to the owner."
      },
      "transferOwnership(address)": {
        "details": "Transfers ownership of the contract to a new account (`newOwner`). Can only be called by the current owner."
      }
    },
    "title": "Standard implementation of ERC1643 Document management",
    "version": 1
  },
  "userdoc": {
    "kind": "user",
    "methods": {
      "_removeDocument(string)": {
        "notice": "Used to remove an existing document from the contract by giving the name of the document."
      },
      "_setDocument(string,string)": {
        "notice": "Used to attach a new document to the contract, or update the data or hash of an existing attached document"
      },
      "getAllDocuments()": {
        "notice": "Used to retrieve a full list of documents attached to the smart contract."
      },
      "getDocument(string)": {
        "notice": "Used to return the details of a document with a known name (`string`)."
      },
      "getDocumentCount()": {
        "notice": "Used to retrieve the total documents in the smart contract."
      },
      "getDocumentName(uint256)": {
        "notice": "Used to retrieve the document name from index in the smart contract."
      }
    },
    "version": 1
  },
  "storageLayout": {
    "storage": [
      {
        "astId": 7,
        "contract": "contracts/Utils/BatchDocuments.sol:BatchDocuments",
        "label": "_owner",
        "offset": 0,
        "slot": "0",
        "type": "t_address"
      },
      {
        "astId": 153,
        "contract": "contracts/Utils/BatchDocuments.sol:BatchDocuments",
        "label": "_documents",
        "offset": 0,
        "slot": "1",
        "type": "t_mapping(t_string_memory_ptr,t_struct(Document)149_storage)"
      },
      {
        "astId": 157,
        "contract": "contracts/Utils/BatchDocuments.sol:BatchDocuments",
        "label": "_docIndexes",
        "offset": 0,
        "slot": "2",
        "type": "t_mapping(t_string_memory_ptr,t_uint32)"
      },
      {
        "astId": 160,
        "contract": "contracts/Utils/BatchDocuments.sol:BatchDocuments",
        "label": "_docNames",
        "offset": 0,
        "slot": "3",
        "type": "t_array(t_string_storage)dyn_storage"
      }
    ],
    "types": {
      "t_address": {
        "encoding": "inplace",
        "label": "address",
        "numberOfBytes": "20"
      },
      "t_array(t_string_storage)dyn_storage": {
        "base": "t_string_storage",
        "encoding": "dynamic_array",
        "label": "string[]",
        "numberOfBytes": "32"
      },
      "t_mapping(t_string_memory_ptr,t_struct(Document)149_storage)": {
        "encoding": "mapping",
        "key": "t_string_memory_ptr",
        "label": "mapping(string => struct BatchDocuments.Document)",
        "numberOfBytes": "32",
        "value": "t_struct(Document)149_storage"
      },
      "t_mapping(t_string_memory_ptr,t_uint32)": {
        "encoding": "mapping",
        "key": "t_string_memory_ptr",
        "label": "mapping(string => uint32)",
        "numberOfBytes": "32",
        "value": "t_uint32"
      },
      "t_string_memory_ptr": {
        "encoding": "bytes",
        "label": "string",
        "numberOfBytes": "32"
      },
      "t_string_storage": {
        "encoding": "bytes",
        "label": "string",
        "numberOfBytes": "32"
      },
      "t_struct(Document)149_storage": {
        "encoding": "inplace",
        "label": "struct BatchDocuments.Document",
        "members": [
          {
            "astId": 144,
            "contract": "contracts/Utils/BatchDocuments.sol:BatchDocuments",
            "label": "docIndex",
            "offset": 0,
            "slot": "0",
            "type": "t_uint32"
          },
          {
            "astId": 146,
            "contract": "contracts/Utils/BatchDocuments.sol:BatchDocuments",
            "label": "lastModified",
            "offset": 4,
            "slot": "0",
            "type": "t_uint64"
          },
          {
            "astId": 148,
            "contract": "contracts/Utils/BatchDocuments.sol:BatchDocuments",
            "label": "data",
            "offset": 0,
            "slot": "1",
            "type": "t_string_storage"
          }
        ],
        "numberOfBytes": "64"
      },
      "t_uint32": {
        "encoding": "inplace",
        "label": "uint32",
        "numberOfBytes": "4"
      },
      "t_uint64": {
        "encoding": "inplace",
        "label": "uint64",
        "numberOfBytes": "8"
      }
    }
  }
}